{
  "address": "0xF7d06E919E6a113fBCCC272261534eC09be392e8",
  "abi": [
    {
      "inputs": [
        {
          "internalType": "contract BaseRegistrarImplementation",
          "name": "_base",
          "type": "address"
        },
        {
          "internalType": "contract IPriceOracle",
          "name": "_prices",
          "type": "address"
        },
        {
          "internalType": "uint256",
          "name": "_minCommitmentAge",
          "type": "uint256"
        },
        {
          "internalType": "uint256",
          "name": "_maxCommitmentAge",
          "type": "uint256"
        },
        {
          "internalType": "contract ReverseRegistrar",
          "name": "_reverseRegistrar",
          "type": "address"
        },
        {
          "internalType": "contract INameWrapper",
          "name": "_nameWrapper",
          "type": "address"
        }
      ],
      "stateMutability": "nonpayable",
      "type": "constructor"
    },
    {
      "inputs": [
        {
          "internalType": "bytes32",
          "name": "commitment",
          "type": "bytes32"
        }
      ],
      "name": "CommitmentTooNew",
      "type": "error"
    },
    {
      "inputs": [
        {
          "internalType": "bytes32",
          "name": "commitment",
          "type": "bytes32"
        }
      ],
      "name": "CommitmentTooOld",
      "type": "error"
    },
    {
      "inputs": [
        {
          "internalType": "uint256",
          "name": "duration",
          "type": "uint256"
        }
      ],
      "name": "DurationTooShort",
      "type": "error"
    },
    {
      "inputs": [],
      "name": "InsufficientValue",
      "type": "error"
    },
    {
      "inputs": [],
      "name": "MaxCommitmentAgeTooHigh",
      "type": "error"
    },
    {
      "inputs": [],
      "name": "MaxCommitmentAgeTooLow",
      "type": "error"
    },
    {
      "inputs": [
        {
          "internalType": "string",
          "name": "name",
          "type": "string"
        }
      ],
      "name": "NameNotAvailable",
      "type": "error"
    },
    {
      "inputs": [],
      "name": "ResolverRequiredWhenDataSupplied",
      "type": "error"
    },
    {
      "inputs": [
        {
          "internalType": "bytes32",
          "name": "node",
          "type": "bytes32"
        }
      ],
      "name": "Unauthorised",
      "type": "error"
    },
    {
      "inputs": [
        {
          "internalType": "bytes32",
          "name": "commitment",
          "type": "bytes32"
        }
      ],
      "name": "UnexpiredCommitmentExists",
      "type": "error"
    },
    {
      "anonymous": false,
      "inputs": [
        {
          "indexed": false,
          "internalType": "string",
          "name": "name",
          "type": "string"
        },
        {
          "indexed": true,
          "internalType": "bytes32",
          "name": "label",
          "type": "bytes32"
        },
        {
          "indexed": true,
          "internalType": "address",
          "name": "owner",
          "type": "address"
        },
        {
          "indexed": false,
          "internalType": "uint256",
          "name": "baseCost",
          "type": "uint256"
        },
        {
          "indexed": false,
          "internalType": "uint256",
          "name": "premium",
          "type": "uint256"
        },
        {
          "indexed": false,
          "internalType": "uint256",
          "name": "expires",
          "type": "uint256"
        }
      ],
      "name": "NameRegistered",
      "type": "event"
    },
    {
      "anonymous": false,
      "inputs": [
        {
          "indexed": false,
          "internalType": "string",
          "name": "name",
          "type": "string"
        },
        {
          "indexed": true,
          "internalType": "bytes32",
          "name": "label",
          "type": "bytes32"
        },
        {
          "indexed": false,
          "internalType": "uint256",
          "name": "cost",
          "type": "uint256"
        },
        {
          "indexed": false,
          "internalType": "uint256",
          "name": "expires",
          "type": "uint256"
        }
      ],
      "name": "NameRenewed",
      "type": "event"
    },
    {
      "anonymous": false,
      "inputs": [
        {
          "indexed": true,
          "internalType": "address",
          "name": "previousOwner",
          "type": "address"
        },
        {
          "indexed": true,
          "internalType": "address",
          "name": "newOwner",
          "type": "address"
        }
      ],
      "name": "OwnershipTransferred",
      "type": "event"
    },
    {
      "inputs": [],
      "name": "MIN_REGISTRATION_DURATION",
      "outputs": [
        {
          "internalType": "uint256",
          "name": "",
          "type": "uint256"
        }
      ],
      "stateMutability": "view",
      "type": "function"
    },
    {
      "inputs": [
        {
          "internalType": "string",
          "name": "name",
          "type": "string"
        }
      ],
      "name": "available",
      "outputs": [
        {
          "internalType": "bool",
          "name": "",
          "type": "bool"
        }
      ],
      "stateMutability": "view",
      "type": "function"
    },
    {
      "inputs": [
        {
          "internalType": "bytes32",
          "name": "commitment",
          "type": "bytes32"
        }
      ],
      "name": "commit",
      "outputs": [],
      "stateMutability": "nonpayable",
      "type": "function"
    },
    {
      "inputs": [
        {
          "internalType": "bytes32",
          "name": "",
          "type": "bytes32"
        }
      ],
      "name": "commitments",
      "outputs": [
        {
          "internalType": "uint256",
          "name": "",
          "type": "uint256"
        }
      ],
      "stateMutability": "view",
      "type": "function"
    },
    {
      "inputs": [
        {
          "internalType": "string",
          "name": "name",
          "type": "string"
        },
        {
          "internalType": "address",
          "name": "owner",
          "type": "address"
        },
        {
          "internalType": "uint256",
          "name": "duration",
          "type": "uint256"
        },
        {
          "internalType": "bytes32",
          "name": "secret",
          "type": "bytes32"
        },
        {
          "internalType": "address",
          "name": "resolver",
          "type": "address"
        },
        {
          "internalType": "bytes[]",
          "name": "data",
          "type": "bytes[]"
        },
        {
          "internalType": "bool",
          "name": "reverseRecord",
          "type": "bool"
        },
        {
          "internalType": "uint32",
          "name": "fuses",
          "type": "uint32"
        },
        {
          "internalType": "uint64",
          "name": "wrapperExpiry",
          "type": "uint64"
        }
      ],
      "name": "makeCommitment",
      "outputs": [
        {
          "internalType": "bytes32",
          "name": "",
          "type": "bytes32"
        }
      ],
      "stateMutability": "pure",
      "type": "function"
    },
    {
      "inputs": [],
      "name": "maxCommitmentAge",
      "outputs": [
        {
          "internalType": "uint256",
          "name": "",
          "type": "uint256"
        }
      ],
      "stateMutability": "view",
      "type": "function"
    },
    {
      "inputs": [],
      "name": "minCommitmentAge",
      "outputs": [
        {
          "internalType": "uint256",
          "name": "",
          "type": "uint256"
        }
      ],
      "stateMutability": "view",
      "type": "function"
    },
    {
      "inputs": [],
      "name": "nameWrapper",
      "outputs": [
        {
          "internalType": "contract INameWrapper",
          "name": "",
          "type": "address"
        }
      ],
      "stateMutability": "view",
      "type": "function"
    },
    {
      "inputs": [],
      "name": "owner",
      "outputs": [
        {
          "internalType": "address",
          "name": "",
          "type": "address"
        }
      ],
      "stateMutability": "view",
      "type": "function"
    },
    {
      "inputs": [],
      "name": "prices",
      "outputs": [
        {
          "internalType": "contract IPriceOracle",
          "name": "",
          "type": "address"
        }
      ],
      "stateMutability": "view",
      "type": "function"
    },
    {
      "inputs": [
        {
          "internalType": "address",
          "name": "_token",
          "type": "address"
        },
        {
          "internalType": "address",
          "name": "_to",
          "type": "address"
        },
        {
          "internalType": "uint256",
          "name": "_amount",
          "type": "uint256"
        }
      ],
      "name": "recoverFunds",
      "outputs": [],
      "stateMutability": "nonpayable",
      "type": "function"
    },
    {
      "inputs": [
        {
          "internalType": "string",
          "name": "name",
          "type": "string"
        },
        {
          "internalType": "address",
          "name": "owner",
          "type": "address"
        },
        {
          "internalType": "uint256",
          "name": "duration",
          "type": "uint256"
        },
        {
          "internalType": "bytes32",
          "name": "secret",
          "type": "bytes32"
        },
        {
          "internalType": "address",
          "name": "resolver",
          "type": "address"
        },
        {
          "internalType": "bytes[]",
          "name": "data",
          "type": "bytes[]"
        },
        {
          "internalType": "bool",
          "name": "reverseRecord",
          "type": "bool"
        },
        {
          "internalType": "uint32",
          "name": "fuses",
          "type": "uint32"
        },
        {
          "internalType": "uint64",
          "name": "wrapperExpiry",
          "type": "uint64"
        }
      ],
      "name": "register",
      "outputs": [],
      "stateMutability": "payable",
      "type": "function"
    },
    {
      "inputs": [
        {
          "internalType": "string",
          "name": "name",
          "type": "string"
        },
        {
          "internalType": "uint256",
          "name": "duration",
          "type": "uint256"
        }
      ],
      "name": "renew",
      "outputs": [],
      "stateMutability": "payable",
      "type": "function"
    },
    {
      "inputs": [
        {
          "internalType": "string",
          "name": "name",
          "type": "string"
        },
        {
          "internalType": "uint256",
          "name": "duration",
          "type": "uint256"
        },
        {
          "internalType": "uint32",
          "name": "fuses",
          "type": "uint32"
        },
        {
          "internalType": "uint64",
          "name": "wrapperExpiry",
          "type": "uint64"
        }
      ],
      "name": "renewWithFuses",
      "outputs": [],
      "stateMutability": "payable",
      "type": "function"
    },
    {
      "inputs": [],
      "name": "renounceOwnership",
      "outputs": [],
      "stateMutability": "nonpayable",
      "type": "function"
    },
    {
      "inputs": [
        {
          "internalType": "string",
          "name": "name",
          "type": "string"
        },
        {
          "internalType": "uint256",
          "name": "duration",
          "type": "uint256"
        }
      ],
      "name": "rentPrice",
      "outputs": [
        {
          "components": [
            {
              "internalType": "uint256",
              "name": "base",
              "type": "uint256"
            },
            {
              "internalType": "uint256",
              "name": "premium",
              "type": "uint256"
            }
          ],
          "internalType": "struct IPriceOracle.Price",
          "name": "price",
          "type": "tuple"
        }
      ],
      "stateMutability": "view",
      "type": "function"
    },
    {
      "inputs": [],
      "name": "reverseRegistrar",
      "outputs": [
        {
          "internalType": "contract ReverseRegistrar",
          "name": "",
          "type": "address"
        }
      ],
      "stateMutability": "view",
      "type": "function"
    },
    {
      "inputs": [
        {
          "internalType": "contract IPriceOracle",
          "name": "_prices",
          "type": "address"
        }
      ],
      "name": "setPrices",
      "outputs": [],
      "stateMutability": "nonpayable",
      "type": "function"
    },
    {
      "inputs": [
        {
          "internalType": "bytes4",
          "name": "interfaceID",
          "type": "bytes4"
        }
      ],
      "name": "supportsInterface",
      "outputs": [
        {
          "internalType": "bool",
          "name": "",
          "type": "bool"
        }
      ],
      "stateMutability": "pure",
      "type": "function"
    },
    {
      "inputs": [
        {
          "internalType": "address",
          "name": "newOwner",
          "type": "address"
        }
      ],
      "name": "transferOwnership",
      "outputs": [],
      "stateMutability": "nonpayable",
      "type": "function"
    },
    {
      "inputs": [
        {
          "internalType": "string",
          "name": "name",
          "type": "string"
        }
      ],
      "name": "valid",
      "outputs": [
        {
          "internalType": "bool",
          "name": "",
          "type": "bool"
        }
      ],
      "stateMutability": "pure",
      "type": "function"
    },
    {
      "inputs": [],
      "name": "withdraw",
      "outputs": [],
      "stateMutability": "nonpayable",
      "type": "function"
    }
  ],
  "transactionHash": "0x37170f0892e1ba020b3a535adf0b296ac8abc3574e14b1d30486e557dfb051c0",
  "args": [
    "0x1EA5a7b682Bc46d15aF8352e354aaEDe5f6932b0",
    "0x90d75D25C41ffdF2b67A99A0c7cFE51490F0beA0",
    60,
    86400,
    "0xf3dA15156E172c2eC1Bd782e07138d8278461E4E",
    "0xA7Be7d2ecD14ae520E2Ab7521A7F8ec4C22A368A"
  ],
  "numDeployments": 1,
  "solcInputHash": "06dc422e41f645e7c99b3722694f53c4",
  "bytecode": "0x6101206040523480156200001257600080fd5b50604051620025343803806200253483398101604081905262000035916200012b565b6200004033620000c2565b83831162000061576040516307cb550760e31b815260040160405180910390fd5b428311156200008357604051630b4319e560e21b815260040160405180910390fd5b6001600160a01b03958616608052600180546001600160a01b0319169587169590951790945560a09290925260c052821660e0521661010052620001a8565b600080546001600160a01b038381166001600160a01b0319831681178455604051919092169283917f8be0079c531659141344cd1fd0a4f28419497f9722a3daafe3b4186f6b6457e09190a35050565b6001600160a01b03811681146200012857600080fd5b50565b60008060008060008060c087890312156200014557600080fd5b8651620001528162000112565b6020880151909650620001658162000112565b8095505060408701519350606087015192506080870151620001878162000112565b60a08801519092506200019a8162000112565b809150509295509295509295565b60805160a05160c05160e0516101005161230f62000225600039600081816103b8015281816107440152818161096501526110fd01526000818161025301526114eb01526000818161041f01528181610e640152611313015260008181610339015261129c015260008181610bd50152610d18015261230f6000f3fe6080604052600436106101755760003560e01c80638d839ffe116100cb578063aeb8ce9b1161007f578063d555254a11610059578063d555254a1461046e578063f14fcbc81461048e578063f2fde38b146104ae57600080fd5b8063aeb8ce9b146103ed578063ce1e09c01461040d578063d3419bf31461044157600080fd5b80639791c097116100b05780639791c09714610386578063a8e5fbc0146103a6578063acf1a841146103da57600080fd5b80638d839ffe146103275780638da5cb5b1461035b57600080fd5b8063715018a61161012d578063839df94511610107578063839df9451461029a57806383e7f6ff146102d55780638a95b09f1461031057600080fd5b8063715018a6146102195780637acaaf261461022e578063808698531461024157600080fd5b806343861c5a1161015e57806343861c5a146101c65780635d3590d5146101e65780636459220f1461020657600080fd5b806301ffc9a71461017a5780633ccfd60b146101af575b600080fd5b34801561018657600080fd5b5061019a6101953660046117b1565b6104ce565b60405190151581526020015b60405180910390f35b3480156101bb57600080fd5b506101c4610567565b005b3480156101d257600080fd5b506101c46101e1366004611815565b6105b1565b3480156101f257600080fd5b506101c4610201366004611832565b610600565b6101c46102143660046118ed565b6106a7565b34801561022557600080fd5b506101c461081a565b6101c461023c3660046119b9565b61082e565b34801561024d57600080fd5b506102757f000000000000000000000000000000000000000000000000000000000000000081565b60405173ffffffffffffffffffffffffffffffffffffffff90911681526020016101a6565b3480156102a657600080fd5b506102c76102b5366004611a9c565b60026020526000908152604090205481565b6040519081526020016101a6565b3480156102e157600080fd5b506102f56102f0366004611b93565b610b67565b604080518251815260209283015192810192909252016101a6565b34801561031c57600080fd5b506102c76224ea0081565b34801561033357600080fd5b506102c77f000000000000000000000000000000000000000000000000000000000000000081565b34801561036757600080fd5b5060005473ffffffffffffffffffffffffffffffffffffffff16610275565b34801561039257600080fd5b5061019a6103a1366004611bd8565b610ca7565b3480156103b257600080fd5b506102757f000000000000000000000000000000000000000000000000000000000000000081565b6101c46103e8366004611c0d565b610cbc565b3480156103f957600080fd5b5061019a610408366004611bd8565b610ccf565b34801561041957600080fd5b506102c77f000000000000000000000000000000000000000000000000000000000000000081565b34801561044d57600080fd5b506001546102759073ffffffffffffffffffffffffffffffffffffffff1681565b34801561047a57600080fd5b506102c7610489366004611c59565b610d9f565b34801561049a57600080fd5b506101c46104a9366004611a9c565b610e4d565b3480156104ba57600080fd5b506101c46104c9366004611815565b610ed6565b60007fffffffff0000000000000000000000000000000000000000000000000000000082167f01ffc9a700000000000000000000000000000000000000000000000000000000148061056157507fffffffff0000000000000000000000000000000000000000000000000000000082167fdf7ed18100000000000000000000000000000000000000000000000000000000145b92915050565b6000805460405173ffffffffffffffffffffffffffffffffffffffff909116914780156108fc02929091818181858888f193505050501580156105ae573d6000803e3d6000fd5b50565b6105b9610f8a565b600180547fffffffffffffffffffffffff00000000000000000000000000000000000000001673ffffffffffffffffffffffffffffffffffffffff92909216919091179055565b610608610f8a565b6040517fa9059cbb00000000000000000000000000000000000000000000000000000000815273ffffffffffffffffffffffffffffffffffffffff83811660048301526024820183905284169063a9059cbb906044016020604051808303816000875af115801561067d573d6000803e3d6000fd5b505050506040513d601f19601f820116820180604052508101906106a19190611d33565b50505050565b600085856040516106b9929190611d50565b604080519182900382207fd051e4f8cb1870f877b00266e1292322bea4c492a9933488e94d7c1a935e8dfa6020840152908201819052915060009060600160408051808303601f190181529082905280516020909101207ff44779b90000000000000000000000000000000000000000000000000000000082526004820181905233602483015291507f000000000000000000000000000000000000000000000000000000000000000073ffffffffffffffffffffffffffffffffffffffff169063f44779b9906044016020604051808303816000875af11580156107a2573d6000803e3d6000fd5b505050506040513d601f19601f820116820180604052508101906107c69190611d33565b610804576040517fe4fd57ae000000000000000000000000000000000000000000000000000000008152600481018290526024015b60405180910390fd5b610811878787878761100b565b50505050505050565b610822610f8a565b61082c6000611210565b565b60006108718c8c8080601f0160208091040260200160405190810160405280939291908181526020018383808284376000920191909152508d9250610b67915050565b6020810151815191925061088491611d8f565b3410156108bd576040517f1101129400000000000000000000000000000000000000000000000000000000815260040160405180910390fd5b6109618c8c8080601f016020809104026020016040519081016040528093929190818152602001838380828437600081840152601f19601f820116905080830192505050505050508a61095c8f8f8080601f016020809104026020016040519081016040528093929190818152602001838380828437600081840152601f19601f820116905080830192505050505050508e8e8e8e8e8e8e8e8e610d9f565b611285565b60007f000000000000000000000000000000000000000000000000000000000000000073ffffffffffffffffffffffffffffffffffffffff16639f56dac68e8e8e8e8d8a8a6040518863ffffffff1660e01b81526004016109c89796959493929190611dcd565b6020604051808303816000875af11580156109e7573d6000803e3d6000fd5b505050506040513d601f19601f82011682018060405250810190610a0b9190611e37565b90508515610a3657610a36888e8e604051610a27929190611d50565b60405180910390208989611402565b8415610a7f57610a7f8d8d8080601f0160208091040260200160405190810160405280939291908181526020018383808284376000920191909152508c92503391506114e99050565b8a73ffffffffffffffffffffffffffffffffffffffff168d8d604051610aa6929190611d50565b60405180910390207f69e37f151eb98a09618ddaa80c8cfaf1ce5996867c489f45b555b412271ebf278f8f8660000151876020015187604051610aed959493929190611e50565b60405180910390a360208201518251610b069190611d8f565b341115610b58576020820151825133916108fc91610b249190611d8f565b610b2e9034611e81565b6040518115909202916000818181858888f19350505050158015610b56573d6000803e3d6000fd5b505b50505050505050505050505050565b6040805180820190915260008082526020820152825160208401206001546040517fd6e4fa860000000000000000000000000000000000000000000000000000000081526004810183905273ffffffffffffffffffffffffffffffffffffffff918216916350e9a7159187917f0000000000000000000000000000000000000000000000000000000000000000169063d6e4fa8690602401602060405180830381865afa158015610c1c573d6000803e3d6000fd5b505050506040513d601f19601f82011682018060405250810190610c409190611e37565b866040518463ffffffff1660e01b8152600401610c5f93929190611ee4565b6040805180830381865afa158015610c7b573d6000803e3d6000fd5b505050506040513d601f19601f82011682018060405250810190610c9f9190611f09565b949350505050565b60006003610cb4836115aa565b101592915050565b610cca83838360008061100b565b505050565b80516020820120600090610ce283610ca7565b8015610d9857506040517f96e494e8000000000000000000000000000000000000000000000000000000008152600481018290527f000000000000000000000000000000000000000000000000000000000000000073ffffffffffffffffffffffffffffffffffffffff16906396e494e890602401602060405180830381865afa158015610d74573d6000803e3d6000fd5b505050506040513d601f19601f82011682018060405250810190610d989190611d33565b9392505050565b895160208b01206000908515801590610dcc575073ffffffffffffffffffffffffffffffffffffffff8816155b15610e03576040517fd3f605c400000000000000000000000000000000000000000000000000000000815260040160405180910390fd5b808b8b8a8a8a8e8b8b8b604051602001610e269a99989796959493929190612008565b604051602081830303815290604052805190602001209150509a9950505050505050505050565b6000818152600260205260409020544290610e89907f000000000000000000000000000000000000000000000000000000000000000090611d8f565b10610ec3576040517f0a059d71000000000000000000000000000000000000000000000000000000008152600481018290526024016107fb565b6000908152600260205260409020429055565b610ede610f8a565b73ffffffffffffffffffffffffffffffffffffffff8116610f81576040517f08c379a000000000000000000000000000000000000000000000000000000000815260206004820152602660248201527f4f776e61626c653a206e6577206f776e657220697320746865207a65726f206160448201527f646472657373000000000000000000000000000000000000000000000000000060648201526084016107fb565b6105ae81611210565b60005473ffffffffffffffffffffffffffffffffffffffff16331461082c576040517f08c379a000000000000000000000000000000000000000000000000000000000815260206004820181905260248201527f4f776e61626c653a2063616c6c6572206973206e6f7420746865206f776e657260448201526064016107fb565b6000858560405161101d929190611d50565b604080519182900382206020601f89018190048102840181019092528783529250829160009161106a91908a908a90819084018382808284376000920191909152508a9250610b67915050565b80519091503410156110a8576040517f1101129400000000000000000000000000000000000000000000000000000000815260040160405180910390fd5b6040517f47d2e9fe000000000000000000000000000000000000000000000000000000008152600481018390526024810187905263ffffffff8616604482015267ffffffffffffffff851660648201526000907f000000000000000000000000000000000000000000000000000000000000000073ffffffffffffffffffffffffffffffffffffffff16906347d2e9fe906084016020604051808303816000875af115801561115b573d6000803e3d6000fd5b505050506040513d601f19601f8201168201806040525081019061117f9190611e37565b82519091503411156111c757815133906108fc9061119d9034611e81565b6040518115909202916000818181858888f193505050501580156111c5573d6000803e3d6000fd5b505b837f3da24c024582931cfaf8267d8ed24d13a82a8068d5bd337d30ec45cea4e506ae8a8a34856040516111fd949392919061208a565b60405180910390a2505050505050505050565b6000805473ffffffffffffffffffffffffffffffffffffffff8381167fffffffffffffffffffffffff0000000000000000000000000000000000000000831681178455604051919092169283917f8be0079c531659141344cd1fd0a4f28419497f9722a3daafe3b4186f6b6457e09190a35050565b60008181526002602052604090205442906112c1907f000000000000000000000000000000000000000000000000000000000000000090611d8f565b11156112fc576040517f5320bcf9000000000000000000000000000000000000000000000000000000008152600481018290526024016107fb565b6000818152600260205260409020544290611338907f000000000000000000000000000000000000000000000000000000000000000090611d8f565b11611372576040517fcb7690d7000000000000000000000000000000000000000000000000000000008152600481018290526024016107fb565b61137b83610ccf565b6113b357826040517f477707e80000000000000000000000000000000000000000000000000000000081526004016107fb91906120b1565b6000818152600260205260408120556224ea00821015610cca576040517f9a71997b000000000000000000000000000000000000000000000000000000008152600481018390526024016107fb565b604080517fd051e4f8cb1870f877b00266e1292322bea4c492a9933488e94d7c1a935e8dfa602080830191909152818301869052825180830384018152606083019384905280519101207fe32954eb00000000000000000000000000000000000000000000000000000000909252859073ffffffffffffffffffffffffffffffffffffffff82169063e32954eb906114a2908590889088906064016120c4565b6000604051808303816000875af11580156114c1573d6000803e3d6000fd5b505050506040513d6000823e601f3d908101601f1916820160405261081191908101906120e7565b7f000000000000000000000000000000000000000000000000000000000000000073ffffffffffffffffffffffffffffffffffffffff16637a806d6b3383858760405160200161153991906121e6565b6040516020818303038152906040526040518563ffffffff1660e01b81526004016115679493929190612227565b6020604051808303816000875af1158015611586573d6000803e3d6000fd5b505050506040513d601f19601f820116820180604052508101906106a19190611e37565b8051600090819081905b808210156117a85760008583815181106115d0576115d0612272565b01602001517fff000000000000000000000000000000000000000000000000000000000000001690507f80000000000000000000000000000000000000000000000000000000000000008110156116335761162c600184611d8f565b9250611795565b7fe0000000000000000000000000000000000000000000000000000000000000007fff00000000000000000000000000000000000000000000000000000000000000821610156116885761162c600284611d8f565b7ff0000000000000000000000000000000000000000000000000000000000000007fff00000000000000000000000000000000000000000000000000000000000000821610156116dd5761162c600384611d8f565b7ff8000000000000000000000000000000000000000000000000000000000000007fff00000000000000000000000000000000000000000000000000000000000000821610156117325761162c600484611d8f565b7ffc000000000000000000000000000000000000000000000000000000000000007fff00000000000000000000000000000000000000000000000000000000000000821610156117875761162c600584611d8f565b611792600684611d8f565b92505b50826117a0816122a1565b9350506115b4565b50909392505050565b6000602082840312156117c357600080fd5b81357fffffffff0000000000000000000000000000000000000000000000000000000081168114610d9857600080fd5b73ffffffffffffffffffffffffffffffffffffffff811681146105ae57600080fd5b60006020828403121561182757600080fd5b8135610d98816117f3565b60008060006060848603121561184757600080fd5b8335611852816117f3565b92506020840135611862816117f3565b929592945050506040919091013590565b60008083601f84011261188557600080fd5b50813567ffffffffffffffff81111561189d57600080fd5b6020830191508360208285010111156118b557600080fd5b9250929050565b803563ffffffff811681146118d057600080fd5b919050565b803567ffffffffffffffff811681146118d057600080fd5b60008060008060006080868803121561190557600080fd5b853567ffffffffffffffff81111561191c57600080fd5b61192888828901611873565b90965094505060208601359250611941604087016118bc565b915061194f606087016118d5565b90509295509295909350565b60008083601f84011261196d57600080fd5b50813567ffffffffffffffff81111561198557600080fd5b6020830191508360208260051b85010111156118b557600080fd5b80151581146105ae57600080fd5b80356118d0816119a0565b60008060008060008060008060008060006101208c8e0312156119db57600080fd5b67ffffffffffffffff808d3511156119f257600080fd5b6119ff8e8e358f01611873565b909c509a50611a1160208e01356117f3565b60208d0135995060408d0135985060608d01359750611a3360808e01356117f3565b60808d013596508060a08e01351115611a4b57600080fd5b50611a5c8d60a08e01358e0161195b565b9095509350611a6d60c08d016119ae565b9250611a7b60e08d016118bc565b9150611a8a6101008d016118d5565b90509295989b509295989b9093969950565b600060208284031215611aae57600080fd5b5035919050565b7f4e487b7100000000000000000000000000000000000000000000000000000000600052604160045260246000fd5b604051601f8201601f1916810167ffffffffffffffff81118282101715611b0d57611b0d611ab5565b604052919050565b600067ffffffffffffffff821115611b2f57611b2f611ab5565b50601f01601f191660200190565b600082601f830112611b4e57600080fd5b8135611b61611b5c82611b15565b611ae4565b818152846020838601011115611b7657600080fd5b816020850160208301376000918101602001919091529392505050565b60008060408385031215611ba657600080fd5b823567ffffffffffffffff811115611bbd57600080fd5b611bc985828601611b3d565b95602094909401359450505050565b600060208284031215611bea57600080fd5b813567ffffffffffffffff811115611c0157600080fd5b610c9f84828501611b3d565b600080600060408486031215611c2257600080fd5b833567ffffffffffffffff811115611c3957600080fd5b611c4586828701611873565b909790965060209590950135949350505050565b6000806000806000806000806000806101208b8d031215611c7957600080fd5b8a3567ffffffffffffffff80821115611c9157600080fd5b611c9d8e838f01611b3d565b9b5060208d01359150611caf826117f3565b90995060408c0135985060608c0135975060808c013590611ccf826117f3565b90965060a08c01359080821115611ce557600080fd5b50611cf28d828e0161195b565b9096509450611d05905060c08c016119ae565b9250611d1360e08c016118bc565b9150611d226101008c016118d5565b90509295989b9194979a5092959850565b600060208284031215611d4557600080fd5b8151610d98816119a0565b8183823760009101908152919050565b7f4e487b7100000000000000000000000000000000000000000000000000000000600052601160045260246000fd5b8082018082111561056157610561611d60565b818352818160208501375060006020828401015260006020601f19601f840116840101905092915050565b60c081526000611de160c08301898b611da2565b905073ffffffffffffffffffffffffffffffffffffffff808816602084015286604084015280861660608401525063ffffffff8416608083015267ffffffffffffffff831660a083015298975050505050505050565b600060208284031215611e4957600080fd5b5051919050565b608081526000611e64608083018789611da2565b602083019590955250604081019290925260609091015292915050565b8181038181111561056157610561611d60565b60005b83811015611eaf578181015183820152602001611e97565b50506000910152565b60008151808452611ed0816020860160208601611e94565b601f01601f19169290920160200192915050565b606081526000611ef76060830186611eb8565b60208301949094525060400152919050565b600060408284031215611f1b57600080fd5b6040516040810181811067ffffffffffffffff82111715611f3e57611f3e611ab5565b604052825181526020928301519281019290925250919050565b81835260006020808501808196508560051b810191508460005b87811015611ffb57828403895281357fffffffffffffffffffffffffffffffffffffffffffffffffffffffffffffffe1883603018112611fb157600080fd5b8701858101903567ffffffffffffffff811115611fcd57600080fd5b803603821315611fdc57600080fd5b611fe7868284611da2565b9a87019a9550505090840190600101611f72565b5091979650505050505050565b60006101208c835273ffffffffffffffffffffffffffffffffffffffff808d1660208501528b6040850152808b1660608501525080608084015261204f818401898b611f58565b60a0840197909752505092151560c084015263ffffffff9190911660e083015267ffffffffffffffff16610100909101529695505050505050565b60608152600061209e606083018688611da2565b6020830194909452506040015292915050565b602081526000610d986020830184611eb8565b8381526040602082015260006120de604083018486611f58565b95945050505050565b600060208083850312156120fa57600080fd5b825167ffffffffffffffff8082111561211257600080fd5b818501915085601f83011261212657600080fd5b81518181111561213857612138611ab5565b8060051b612147858201611ae4565b918252838101850191858101908984111561216157600080fd5b86860192505b838310156121d95782518581111561217f5760008081fd5b8601603f81018b136121915760008081fd5b8781015160406121a3611b5c83611b15565b8281528d828486010111156121b85760008081fd5b6121c7838c8301848701611e94565b85525050509186019190860190612167565b9998505050505050505050565b600082516121f8818460208701611e94565b7f2e7363726f6c6c00000000000000000000000000000000000000000000000000920191825250600701919050565b600073ffffffffffffffffffffffffffffffffffffffff80871683528086166020840152808516604084015250608060608301526122686080830184611eb8565b9695505050505050565b7f4e487b7100000000000000000000000000000000000000000000000000000000600052603260045260246000fd5b60007fffffffffffffffffffffffffffffffffffffffffffffffffffffffffffffffff82036122d2576122d2611d60565b506001019056fea264697066735822122066d2b1bb58d174398c7013b527319d61535058af2a0ac81a6e8b99a8dc1486ce64736f6c63430008110033",
  "devdoc": {
    "details": "A registrar controller for registering and renewing names at fixed cost.",
    "kind": "dev",
    "methods": {
      "owner()": {
        "details": "Returns the address of the current owner."
      },
      "recoverFunds(address,address,uint256)": {
        "details": "The contract is Ownable and only the owner can call the recover function.",
        "params": {
          "_amount": "The amount of tokens to recover.",
          "_to": "The address to send the tokens to.",
          "_token": "The address of the ERC20 token to recover"
        }
      },
      "renounceOwnership()": {
        "details": "Leaves the contract without owner. It will not be possible to call `onlyOwner` functions anymore. Can only be called by the current owner. NOTE: Renouncing ownership will leave the contract without an owner, thereby removing any functionality that is only available to the owner."
      },
      "transferOwnership(address)": {
        "details": "Transfers ownership of the contract to a new account (`newOwner`). Can only be called by the current owner."
      }
    },
    "version": 1
  },
  "userdoc": {
    "kind": "user",
    "methods": {
      "recoverFunds(address,address,uint256)": {
        "notice": "Recover ERC20 tokens sent to the contract by mistake."
      }
    },
    "version": 1
  },
  "storageLayout": {
    "storage": [
      {
        "astId": 545,
        "contract": "contracts/ethregistrar/ETHRegistrarController.sol:ETHRegistrarController",
        "label": "_owner",
        "offset": 0,
        "slot": "0",
        "type": "t_address"
      },
      {
        "astId": 10322,
        "contract": "contracts/ethregistrar/ETHRegistrarController.sol:ETHRegistrarController",
        "label": "prices",
        "offset": 0,
        "slot": "1",
        "type": "t_contract(IPriceOracle)11837"
      },
      {
        "astId": 10336,
        "contract": "contracts/ethregistrar/ETHRegistrarController.sol:ETHRegistrarController",
        "label": "commitments",
        "offset": 0,
        "slot": "2",
        "type": "t_mapping(t_bytes32,t_uint256)"
      }
    ],
    "types": {
      "t_address": {
        "encoding": "inplace",
        "label": "address",
        "numberOfBytes": "20"
      },
      "t_bytes32": {
        "encoding": "inplace",
        "label": "bytes32",
        "numberOfBytes": "32"
      },
      "t_contract(IPriceOracle)11837": {
        "encoding": "inplace",
        "label": "contract IPriceOracle",
        "numberOfBytes": "20"
      },
      "t_mapping(t_bytes32,t_uint256)": {
        "encoding": "mapping",
        "key": "t_bytes32",
        "label": "mapping(bytes32 => uint256)",
        "numberOfBytes": "32",
        "value": "t_uint256"
      },
      "t_uint256": {
        "encoding": "inplace",
        "label": "uint256",
        "numberOfBytes": "32"
      }
    }
  }
}