{
  "address": "0xA7Be7d2ecD14ae520E2Ab7521A7F8ec4C22A368A",
  "abi": [
    {
      "inputs": [
        {
          "internalType": "contract SNS",
          "name": "_sns",
          "type": "address"
        },
        {
          "internalType": "contract IBaseRegistrar",
          "name": "_registrar",
          "type": "address"
        },
        {
          "internalType": "contract IMetadataService",
          "name": "_metadataService",
          "type": "address"
        }
      ],
      "stateMutability": "nonpayable",
      "type": "constructor"
    },
    {
      "inputs": [],
      "name": "CannotUpgrade",
      "type": "error"
    },
    {
      "inputs": [],
      "name": "IncompatibleParent",
      "type": "error"
    },
    {
      "inputs": [
        {
          "internalType": "address",
          "name": "owner",
          "type": "address"
        }
      ],
      "name": "IncorrectTargetOwner",
      "type": "error"
    },
    {
      "inputs": [],
      "name": "IncorrectTokenType",
      "type": "error"
    },
    {
      "inputs": [
        {
          "internalType": "bytes32",
          "name": "labelHash",
          "type": "bytes32"
        },
        {
          "internalType": "bytes32",
          "name": "expectedLabelhash",
          "type": "bytes32"
        }
      ],
      "name": "LabelMismatch",
      "type": "error"
    },
    {
      "inputs": [
        {
          "internalType": "string",
          "name": "label",
          "type": "string"
        }
      ],
      "name": "LabelTooLong",
      "type": "error"
    },
    {
      "inputs": [],
      "name": "LabelTooShort",
      "type": "error"
    },
    {
      "inputs": [
        {
          "internalType": "bytes32",
          "name": "node",
          "type": "bytes32"
        }
      ],
      "name": "OperationProhibited",
      "type": "error"
    },
    {
      "inputs": [
        {
          "internalType": "bytes32",
          "name": "node",
          "type": "bytes32"
        },
        {
          "internalType": "address",
          "name": "addr",
          "type": "address"
        }
      ],
      "name": "Unauthorised",
      "type": "error"
    },
    {
      "anonymous": false,
      "inputs": [
        {
          "indexed": true,
          "internalType": "address",
          "name": "account",
          "type": "address"
        },
        {
          "indexed": true,
          "internalType": "address",
          "name": "operator",
          "type": "address"
        },
        {
          "indexed": false,
          "internalType": "bool",
          "name": "approved",
          "type": "bool"
        }
      ],
      "name": "ApprovalForAll",
      "type": "event"
    },
    {
      "anonymous": false,
      "inputs": [
        {
          "indexed": true,
          "internalType": "address",
          "name": "controller",
          "type": "address"
        },
        {
          "indexed": false,
          "internalType": "bool",
          "name": "active",
          "type": "bool"
        }
      ],
      "name": "ControllerChanged",
      "type": "event"
    },
    {
      "anonymous": false,
      "inputs": [
        {
          "indexed": true,
          "internalType": "bytes32",
          "name": "node",
          "type": "bytes32"
        },
        {
          "indexed": false,
          "internalType": "uint32",
          "name": "fuses",
          "type": "uint32"
        },
        {
          "indexed": false,
          "internalType": "uint64",
          "name": "expiry",
          "type": "uint64"
        }
      ],
      "name": "FusesSet",
      "type": "event"
    },
    {
      "anonymous": false,
      "inputs": [
        {
          "indexed": true,
          "internalType": "bytes32",
          "name": "node",
          "type": "bytes32"
        },
        {
          "indexed": false,
          "internalType": "address",
          "name": "owner",
          "type": "address"
        }
      ],
      "name": "NameUnwrapped",
      "type": "event"
    },
    {
      "anonymous": false,
      "inputs": [
        {
          "indexed": true,
          "internalType": "bytes32",
          "name": "node",
          "type": "bytes32"
        },
        {
          "indexed": false,
          "internalType": "bytes",
          "name": "name",
          "type": "bytes"
        },
        {
          "indexed": false,
          "internalType": "address",
          "name": "owner",
          "type": "address"
        },
        {
          "indexed": false,
          "internalType": "uint32",
          "name": "fuses",
          "type": "uint32"
        },
        {
          "indexed": false,
          "internalType": "uint64",
          "name": "expiry",
          "type": "uint64"
        }
      ],
      "name": "NameWrapped",
      "type": "event"
    },
    {
      "anonymous": false,
      "inputs": [
        {
          "indexed": true,
          "internalType": "address",
          "name": "previousOwner",
          "type": "address"
        },
        {
          "indexed": true,
          "internalType": "address",
          "name": "newOwner",
          "type": "address"
        }
      ],
      "name": "OwnershipTransferred",
      "type": "event"
    },
    {
      "anonymous": false,
      "inputs": [
        {
          "indexed": true,
          "internalType": "address",
          "name": "operator",
          "type": "address"
        },
        {
          "indexed": true,
          "internalType": "address",
          "name": "from",
          "type": "address"
        },
        {
          "indexed": true,
          "internalType": "address",
          "name": "to",
          "type": "address"
        },
        {
          "indexed": false,
          "internalType": "uint256[]",
          "name": "ids",
          "type": "uint256[]"
        },
        {
          "indexed": false,
          "internalType": "uint256[]",
          "name": "values",
          "type": "uint256[]"
        }
      ],
      "name": "TransferBatch",
      "type": "event"
    },
    {
      "anonymous": false,
      "inputs": [
        {
          "indexed": true,
          "internalType": "address",
          "name": "operator",
          "type": "address"
        },
        {
          "indexed": true,
          "internalType": "address",
          "name": "from",
          "type": "address"
        },
        {
          "indexed": true,
          "internalType": "address",
          "name": "to",
          "type": "address"
        },
        {
          "indexed": false,
          "internalType": "uint256",
          "name": "id",
          "type": "uint256"
        },
        {
          "indexed": false,
          "internalType": "uint256",
          "name": "value",
          "type": "uint256"
        }
      ],
      "name": "TransferSingle",
      "type": "event"
    },
    {
      "anonymous": false,
      "inputs": [
        {
          "indexed": false,
          "internalType": "string",
          "name": "value",
          "type": "string"
        },
        {
          "indexed": true,
          "internalType": "uint256",
          "name": "id",
          "type": "uint256"
        }
      ],
      "name": "URI",
      "type": "event"
    },
    {
      "inputs": [
        {
          "internalType": "uint256",
          "name": "",
          "type": "uint256"
        }
      ],
      "name": "_tokens",
      "outputs": [
        {
          "internalType": "uint256",
          "name": "",
          "type": "uint256"
        }
      ],
      "stateMutability": "view",
      "type": "function"
    },
    {
      "inputs": [
        {
          "internalType": "bytes32",
          "name": "node",
          "type": "bytes32"
        },
        {
          "internalType": "uint32",
          "name": "fuseMask",
          "type": "uint32"
        }
      ],
      "name": "allFusesBurned",
      "outputs": [
        {
          "internalType": "bool",
          "name": "",
          "type": "bool"
        }
      ],
      "stateMutability": "view",
      "type": "function"
    },
    {
      "inputs": [
        {
          "internalType": "address",
          "name": "account",
          "type": "address"
        },
        {
          "internalType": "uint256",
          "name": "id",
          "type": "uint256"
        }
      ],
      "name": "balanceOf",
      "outputs": [
        {
          "internalType": "uint256",
          "name": "",
          "type": "uint256"
        }
      ],
      "stateMutability": "view",
      "type": "function"
    },
    {
      "inputs": [
        {
          "internalType": "address[]",
          "name": "accounts",
          "type": "address[]"
        },
        {
          "internalType": "uint256[]",
          "name": "ids",
          "type": "uint256[]"
        }
      ],
      "name": "balanceOfBatch",
      "outputs": [
        {
          "internalType": "uint256[]",
          "name": "",
          "type": "uint256[]"
        }
      ],
      "stateMutability": "view",
      "type": "function"
    },
    {
      "inputs": [
        {
          "internalType": "address",
          "name": "",
          "type": "address"
        }
      ],
      "name": "controllers",
      "outputs": [
        {
          "internalType": "bool",
          "name": "",
          "type": "bool"
        }
      ],
      "stateMutability": "view",
      "type": "function"
    },
    {
      "inputs": [
        {
          "internalType": "uint256",
          "name": "id",
          "type": "uint256"
        }
      ],
      "name": "getData",
      "outputs": [
        {
          "internalType": "address",
          "name": "",
          "type": "address"
        },
        {
          "internalType": "uint32",
          "name": "",
          "type": "uint32"
        },
        {
          "internalType": "uint64",
          "name": "",
          "type": "uint64"
        }
      ],
      "stateMutability": "view",
      "type": "function"
    },
    {
      "inputs": [
        {
          "internalType": "address",
          "name": "account",
          "type": "address"
        },
        {
          "internalType": "address",
          "name": "operator",
          "type": "address"
        }
      ],
      "name": "isApprovedForAll",
      "outputs": [
        {
          "internalType": "bool",
          "name": "",
          "type": "bool"
        }
      ],
      "stateMutability": "view",
      "type": "function"
    },
    {
      "inputs": [
        {
          "internalType": "bytes32",
          "name": "node",
          "type": "bytes32"
        },
        {
          "internalType": "address",
          "name": "addr",
          "type": "address"
        }
      ],
      "name": "isTokenOwnerOrApproved",
      "outputs": [
        {
          "internalType": "bool",
          "name": "",
          "type": "bool"
        }
      ],
      "stateMutability": "view",
      "type": "function"
    },
    {
      "inputs": [
        {
          "internalType": "bytes32",
          "name": "node",
          "type": "bytes32"
        }
      ],
      "name": "isWrapped",
      "outputs": [
        {
          "internalType": "bool",
          "name": "",
          "type": "bool"
        }
      ],
      "stateMutability": "view",
      "type": "function"
    },
    {
      "inputs": [],
      "name": "metadataService",
      "outputs": [
        {
          "internalType": "contract IMetadataService",
          "name": "",
          "type": "address"
        }
      ],
      "stateMutability": "view",
      "type": "function"
    },
    {
      "inputs": [],
      "name": "name",
      "outputs": [
        {
          "internalType": "string",
          "name": "",
          "type": "string"
        }
      ],
      "stateMutability": "view",
      "type": "function"
    },
    {
      "inputs": [
        {
          "internalType": "bytes32",
          "name": "",
          "type": "bytes32"
        }
      ],
      "name": "names",
      "outputs": [
        {
          "internalType": "bytes",
          "name": "",
          "type": "bytes"
        }
      ],
      "stateMutability": "view",
      "type": "function"
    },
    {
      "inputs": [
        {
          "internalType": "address",
          "name": "to",
          "type": "address"
        },
        {
          "internalType": "address",
          "name": "",
          "type": "address"
        },
        {
          "internalType": "uint256",
          "name": "tokenId",
          "type": "uint256"
        },
        {
          "internalType": "bytes",
          "name": "data",
          "type": "bytes"
        }
      ],
      "name": "onERC721Received",
      "outputs": [
        {
          "internalType": "bytes4",
          "name": "",
          "type": "bytes4"
        }
      ],
      "stateMutability": "nonpayable",
      "type": "function"
    },
    {
      "inputs": [],
      "name": "owner",
      "outputs": [
        {
          "internalType": "address",
          "name": "",
          "type": "address"
        }
      ],
      "stateMutability": "view",
      "type": "function"
    },
    {
      "inputs": [
        {
          "internalType": "uint256",
          "name": "id",
          "type": "uint256"
        }
      ],
      "name": "ownerOf",
      "outputs": [
        {
          "internalType": "address",
          "name": "owner",
          "type": "address"
        }
      ],
      "stateMutability": "view",
      "type": "function"
    },
    {
      "inputs": [
        {
          "internalType": "address",
          "name": "_token",
          "type": "address"
        },
        {
          "internalType": "address",
          "name": "_to",
          "type": "address"
        },
        {
          "internalType": "uint256",
          "name": "_amount",
          "type": "uint256"
        }
      ],
      "name": "recoverFunds",
      "outputs": [],
      "stateMutability": "nonpayable",
      "type": "function"
    },
    {
      "inputs": [
        {
          "internalType": "string",
          "name": "label",
          "type": "string"
        },
        {
          "internalType": "address",
          "name": "wrappedOwner",
          "type": "address"
        },
        {
          "internalType": "uint256",
          "name": "duration",
          "type": "uint256"
        },
        {
          "internalType": "address",
          "name": "resolver",
          "type": "address"
        },
        {
          "internalType": "uint32",
          "name": "fuses",
          "type": "uint32"
        },
        {
          "internalType": "uint64",
          "name": "expiry",
          "type": "uint64"
        }
      ],
      "name": "registerAndWrapETH2LD",
      "outputs": [
        {
          "internalType": "uint256",
          "name": "registrarExpiry",
          "type": "uint256"
        }
      ],
      "stateMutability": "nonpayable",
      "type": "function"
    },
    {
      "inputs": [],
      "name": "registrar",
      "outputs": [
        {
          "internalType": "contract IBaseRegistrar",
          "name": "",
          "type": "address"
        }
      ],
      "stateMutability": "view",
      "type": "function"
    },
    {
      "inputs": [
        {
          "internalType": "uint256",
          "name": "tokenId",
          "type": "uint256"
        },
        {
          "internalType": "uint256",
          "name": "duration",
          "type": "uint256"
        },
        {
          "internalType": "uint32",
          "name": "fuses",
          "type": "uint32"
        },
        {
          "internalType": "uint64",
          "name": "expiry",
          "type": "uint64"
        }
      ],
      "name": "renew",
      "outputs": [
        {
          "internalType": "uint256",
          "name": "expires",
          "type": "uint256"
        }
      ],
      "stateMutability": "nonpayable",
      "type": "function"
    },
    {
      "inputs": [],
      "name": "renounceOwnership",
      "outputs": [],
      "stateMutability": "nonpayable",
      "type": "function"
    },
    {
      "inputs": [
        {
          "internalType": "address",
          "name": "from",
          "type": "address"
        },
        {
          "internalType": "address",
          "name": "to",
          "type": "address"
        },
        {
          "internalType": "uint256[]",
          "name": "ids",
          "type": "uint256[]"
        },
        {
          "internalType": "uint256[]",
          "name": "amounts",
          "type": "uint256[]"
        },
        {
          "internalType": "bytes",
          "name": "data",
          "type": "bytes"
        }
      ],
      "name": "safeBatchTransferFrom",
      "outputs": [],
      "stateMutability": "nonpayable",
      "type": "function"
    },
    {
      "inputs": [
        {
          "internalType": "address",
          "name": "from",
          "type": "address"
        },
        {
          "internalType": "address",
          "name": "to",
          "type": "address"
        },
        {
          "internalType": "uint256",
          "name": "id",
          "type": "uint256"
        },
        {
          "internalType": "uint256",
          "name": "amount",
          "type": "uint256"
        },
        {
          "internalType": "bytes",
          "name": "data",
          "type": "bytes"
        }
      ],
      "name": "safeTransferFrom",
      "outputs": [],
      "stateMutability": "nonpayable",
      "type": "function"
    },
    {
      "inputs": [
        {
          "internalType": "address",
          "name": "operator",
          "type": "address"
        },
        {
          "internalType": "bool",
          "name": "approved",
          "type": "bool"
        }
      ],
      "name": "setApprovalForAll",
      "outputs": [],
      "stateMutability": "nonpayable",
      "type": "function"
    },
    {
      "inputs": [
        {
          "internalType": "bytes32",
          "name": "parentNode",
          "type": "bytes32"
        },
        {
          "internalType": "bytes32",
          "name": "labelhash",
          "type": "bytes32"
        },
        {
          "internalType": "uint32",
          "name": "fuses",
          "type": "uint32"
        },
        {
          "internalType": "uint64",
          "name": "expiry",
          "type": "uint64"
        }
      ],
      "name": "setChildFuses",
      "outputs": [],
      "stateMutability": "nonpayable",
      "type": "function"
    },
    {
      "inputs": [
        {
          "internalType": "address",
          "name": "controller",
          "type": "address"
        },
        {
          "internalType": "bool",
          "name": "active",
          "type": "bool"
        }
      ],
      "name": "setController",
      "outputs": [],
      "stateMutability": "nonpayable",
      "type": "function"
    },
    {
      "inputs": [
        {
          "internalType": "bytes32",
          "name": "node",
          "type": "bytes32"
        },
        {
          "internalType": "uint32",
          "name": "fuses",
          "type": "uint32"
        }
      ],
      "name": "setFuses",
      "outputs": [
        {
          "internalType": "uint32",
          "name": "",
          "type": "uint32"
        }
      ],
      "stateMutability": "nonpayable",
      "type": "function"
    },
    {
      "inputs": [
        {
          "internalType": "contract IMetadataService",
          "name": "_metadataService",
          "type": "address"
        }
      ],
      "name": "setMetadataService",
      "outputs": [],
      "stateMutability": "nonpayable",
      "type": "function"
    },
    {
      "inputs": [
        {
          "internalType": "bytes32",
          "name": "node",
          "type": "bytes32"
        },
        {
          "internalType": "address",
          "name": "owner",
          "type": "address"
        },
        {
          "internalType": "address",
          "name": "resolver",
          "type": "address"
        },
        {
          "internalType": "uint64",
          "name": "ttl",
          "type": "uint64"
        }
      ],
      "name": "setRecord",
      "outputs": [],
      "stateMutability": "nonpayable",
      "type": "function"
    },
    {
      "inputs": [
        {
          "internalType": "bytes32",
          "name": "node",
          "type": "bytes32"
        },
        {
          "internalType": "address",
          "name": "resolver",
          "type": "address"
        }
      ],
      "name": "setResolver",
      "outputs": [],
      "stateMutability": "nonpayable",
      "type": "function"
    },
    {
      "inputs": [
        {
          "internalType": "bytes32",
          "name": "parentNode",
          "type": "bytes32"
        },
        {
          "internalType": "string",
          "name": "label",
          "type": "string"
        },
        {
          "internalType": "address",
          "name": "owner",
          "type": "address"
        },
        {
          "internalType": "uint32",
          "name": "fuses",
          "type": "uint32"
        },
        {
          "internalType": "uint64",
          "name": "expiry",
          "type": "uint64"
        }
      ],
      "name": "setSubnodeOwner",
      "outputs": [
        {
          "internalType": "bytes32",
          "name": "node",
          "type": "bytes32"
        }
      ],
      "stateMutability": "nonpayable",
      "type": "function"
    },
    {
      "inputs": [
        {
          "internalType": "bytes32",
          "name": "parentNode",
          "type": "bytes32"
        },
        {
          "internalType": "string",
          "name": "label",
          "type": "string"
        },
        {
          "internalType": "address",
          "name": "owner",
          "type": "address"
        },
        {
          "internalType": "address",
          "name": "resolver",
          "type": "address"
        },
        {
          "internalType": "uint64",
          "name": "ttl",
          "type": "uint64"
        },
        {
          "internalType": "uint32",
          "name": "fuses",
          "type": "uint32"
        },
        {
          "internalType": "uint64",
          "name": "expiry",
          "type": "uint64"
        }
      ],
      "name": "setSubnodeRecord",
      "outputs": [
        {
          "internalType": "bytes32",
          "name": "node",
          "type": "bytes32"
        }
      ],
      "stateMutability": "nonpayable",
      "type": "function"
    },
    {
      "inputs": [
        {
          "internalType": "bytes32",
          "name": "node",
          "type": "bytes32"
        },
        {
          "internalType": "uint64",
          "name": "ttl",
          "type": "uint64"
        }
      ],
      "name": "setTTL",
      "outputs": [],
      "stateMutability": "nonpayable",
      "type": "function"
    },
    {
      "inputs": [
        {
          "internalType": "contract INameWrapperUpgrade",
          "name": "_upgradeAddress",
          "type": "address"
        }
      ],
      "name": "setUpgradeContract",
      "outputs": [],
      "stateMutability": "nonpayable",
      "type": "function"
    },
    {
      "inputs": [],
      "name": "sns",
      "outputs": [
        {
          "internalType": "contract SNS",
          "name": "",
          "type": "address"
        }
      ],
      "stateMutability": "view",
      "type": "function"
    },
    {
      "inputs": [
        {
          "internalType": "bytes4",
          "name": "interfaceId",
          "type": "bytes4"
        }
      ],
      "name": "supportsInterface",
      "outputs": [
        {
          "internalType": "bool",
          "name": "",
          "type": "bool"
        }
      ],
      "stateMutability": "view",
      "type": "function"
    },
    {
      "inputs": [
        {
          "internalType": "address",
          "name": "newOwner",
          "type": "address"
        }
      ],
      "name": "transferOwnership",
      "outputs": [],
      "stateMutability": "nonpayable",
      "type": "function"
    },
    {
      "inputs": [
        {
          "internalType": "bytes32",
          "name": "parentNode",
          "type": "bytes32"
        },
        {
          "internalType": "bytes32",
          "name": "labelhash",
          "type": "bytes32"
        },
        {
          "internalType": "address",
          "name": "controller",
          "type": "address"
        }
      ],
      "name": "unwrap",
      "outputs": [],
      "stateMutability": "nonpayable",
      "type": "function"
    },
    {
      "inputs": [
        {
          "internalType": "bytes32",
          "name": "labelhash",
          "type": "bytes32"
        },
        {
          "internalType": "address",
          "name": "registrant",
          "type": "address"
        },
        {
          "internalType": "address",
          "name": "controller",
          "type": "address"
        }
      ],
      "name": "unwrapETH2LD",
      "outputs": [],
      "stateMutability": "nonpayable",
      "type": "function"
    },
    {
      "inputs": [
        {
          "internalType": "bytes32",
          "name": "parentNode",
          "type": "bytes32"
        },
        {
          "internalType": "string",
          "name": "label",
          "type": "string"
        },
        {
          "internalType": "address",
          "name": "wrappedOwner",
          "type": "address"
        },
        {
          "internalType": "address",
          "name": "resolver",
          "type": "address"
        }
      ],
      "name": "upgrade",
      "outputs": [],
      "stateMutability": "nonpayable",
      "type": "function"
    },
    {
      "inputs": [],
      "name": "upgradeContract",
      "outputs": [
        {
          "internalType": "contract INameWrapperUpgrade",
          "name": "",
          "type": "address"
        }
      ],
      "stateMutability": "view",
      "type": "function"
    },
    {
      "inputs": [
        {
          "internalType": "string",
          "name": "label",
          "type": "string"
        },
        {
          "internalType": "address",
          "name": "wrappedOwner",
          "type": "address"
        },
        {
          "internalType": "address",
          "name": "resolver",
          "type": "address"
        }
      ],
      "name": "upgradeETH2LD",
      "outputs": [],
      "stateMutability": "nonpayable",
      "type": "function"
    },
    {
      "inputs": [
        {
          "internalType": "uint256",
          "name": "tokenId",
          "type": "uint256"
        }
      ],
      "name": "uri",
      "outputs": [
        {
          "internalType": "string",
          "name": "",
          "type": "string"
        }
      ],
      "stateMutability": "view",
      "type": "function"
    },
    {
      "inputs": [
        {
          "internalType": "bytes",
          "name": "name",
          "type": "bytes"
        },
        {
          "internalType": "address",
          "name": "wrappedOwner",
          "type": "address"
        },
        {
          "internalType": "address",
          "name": "resolver",
          "type": "address"
        }
      ],
      "name": "wrap",
      "outputs": [],
      "stateMutability": "nonpayable",
      "type": "function"
    },
    {
      "inputs": [
        {
          "internalType": "string",
          "name": "label",
          "type": "string"
        },
        {
          "internalType": "address",
          "name": "wrappedOwner",
          "type": "address"
        },
        {
          "internalType": "uint32",
          "name": "fuses",
          "type": "uint32"
        },
        {
          "internalType": "uint64",
          "name": "expiry",
          "type": "uint64"
        },
        {
          "internalType": "address",
          "name": "resolver",
          "type": "address"
        }
      ],
      "name": "wrapETH2LD",
      "outputs": [
        {
          "internalType": "uint64",
          "name": "",
          "type": "uint64"
        }
      ],
      "stateMutability": "nonpayable",
      "type": "function"
    }
  ],
  "transactionHash": "0xfbb939b48260d5a41a45a134289b3b1a2dd49148baf586410d5c9fcc80c1f6f6",
  "args": [
    "0xC449ff43A7e3FAe2d2Fb7c81f8A2C491E9B33b7b",
    "0x1EA5a7b682Bc46d15aF8352e354aaEDe5f6932b0",
    "0x9F2bd1310e54C7c8aBbC71B6f9f936015DE6b39E"
  ],
  "numDeployments": 1,
  "solcInputHash": "06dc422e41f645e7c99b3722694f53c4",
  "bytecode": "0x60c06040523480156200001157600080fd5b50604051620061c4380380620061c48339810160408190526200003491620001f4565b6200003f336200018b565b6001600160a01b0383811660805282811660a052600480546001600160a01b031916918316919091179055600163ffffffbf60a01b03197f41f96a7015521ab2a0d6c4f0622e0417abfadc99a65ef33b8be1568d486d940b8190557fa6eef7e35abe7026729641147f7915573c7e97b47efa546f5f6e3230263bcb4955604080518082019091526001815260006020808301829052908052600590527f05b8ccbb9d4d8fb16ea74ce3c29a41f1b461fbdaff4714a0d9a8eb05499746bc90620001099082620002ed565b50604080518082019091526008815265dcd8dc9bdb1b60ca1b6020808301919091527fd051e4f8cb1870f877b00266e1292322bea4c492a9933488e94d7c1a935e8dfa600052600590527f936d0f625c6f9f2158d1b87d44629387db8bd54b45007654329a1ae01d122d5e90620001819082620002ed565b50505050620003b9565b600080546001600160a01b038381166001600160a01b0319831681178455604051919092169283917f8be0079c531659141344cd1fd0a4f28419497f9722a3daafe3b4186f6b6457e09190a35050565b6001600160a01b0381168114620001f157600080fd5b50565b6000806000606084860312156200020a57600080fd5b83516200021781620001db565b60208501519093506200022a81620001db565b60408501519092506200023d81620001db565b809150509250925092565b634e487b7160e01b600052604160045260246000fd5b600181811c908216806200027357607f821691505b6020821081036200029457634e487b7160e01b600052602260045260246000fd5b50919050565b601f821115620002e857600081815260208120601f850160051c81016020861015620002c35750805b601f850160051c820191505b81811015620002e457828155600101620002cf565b5050505b505050565b81516001600160401b0381111562000309576200030962000248565b62000321816200031a84546200025e565b846200029a565b602080601f831160018114620003595760008415620003405750858301515b600019600386901b1c1916600185901b178555620002e4565b600085815260208120601f198616915b828110156200038a5788860151825594840194600190910190840162000369565b5085821015620003a95787850151600019600388901b60f8161c191681555b5050505050600190811b01905550565b60805160a051615d13620004b1600039600081816104b901528181610ae101528181610bd8015281816116340152818161186301528181611cc901528181611e0601528181612057015281816121d3015281816132b30152818161337a0152818161349c0152818161352b01526144ba01526000818161050601528181610a6701528181610d6a01528181610edf0152818161107b01528181611146015281816120f50152818161227101528181612437015281816125d0015281816127b901528181612c7101528181612d3801528181612e1a01528181612eac0152818161363a015281816138bf0152613f890152615d136000f3fe608060405234801561001057600080fd5b50600436106102f35760003560e01c80638b4dfa7511610191578063e0dba60f116100e3578063ee7eba7811610097578063f44779b911610071578063f44779b91461075e578063f9547a9e14610771578063fd0cd0d91461079d57600080fd5b8063ee7eba7814610725578063f242432a14610738578063f2fde38b1461074b57600080fd5b8063e985e9c5116100c8578063e985e9c5146106b6578063eb8ae530146106f2578063ed70554d1461070557600080fd5b8063e0dba60f14610690578063e72bf00f146106a357600080fd5b8063b6bcad2611610145578063cf4088231161011f578063cf40882314610647578063d8c9921a1461065a578063da8c229e1461066d57600080fd5b8063b6bcad26146105f9578063c20a2eb01461060c578063c658e0861461063457600080fd5b80639f56dac6116101765780639f56dac6146105c0578063a22cb465146105d3578063adf4960a146105e657600080fd5b80638b4dfa751461059c5780638da5cb5b146105af57600080fd5b806324c1af441161024a57806347d2e9fe116101fe5780635d3590d5116101d85780635d3590d51461056e5780636352211e14610581578063715018a61461059457600080fd5b806347d2e9fe146105285780634e1273f41461053b578063530954671461055b57600080fd5b80632eb2c2d61161022f5780632eb2c2d6146104db57806333c69ea9146104ee57806340288a981461050157600080fd5b806324c1af44146104a15780632b20e397146104b457600080fd5b806314ab9038116102ac5780631896f70a116102865780631896f70a146104505780631f4e15041461046357806320c38e2b1461048e57600080fd5b806314ab9038146103e4578063150b7a02146103f95780631534e1771461043d57600080fd5b806301ffc9a7116102dd57806301ffc9a71461036557806306fdde03146103885780630e89341c146103d157600080fd5b8062fdd58e146102f85780630178fe3f1461031e575b600080fd5b61030b610306366004614b38565b6107b0565b6040519081526020015b60405180910390f35b61033161032c366004614b64565b610871565b604080516001600160a01b03909416845263ffffffff909216602084015267ffffffffffffffff1690820152606001610315565b610378610373366004614bab565b61088c565b6040519015158152602001610315565b6103c46040518060400160405280600b81526020017f4e616d655772617070657200000000000000000000000000000000000000000081525081565b6040516103159190614c1f565b6103c46103df366004614b64565b61092e565b6103f76103f2366004614c4f565b6109bb565b005b61040c610407366004614cc4565b610ad4565b6040517fffffffff000000000000000000000000000000000000000000000000000000009091168152602001610315565b6103f761044b366004614d37565b610c7c565b6103f761045e366004614d54565b610cbe565b600654610476906001600160a01b031681565b6040516001600160a01b039091168152602001610315565b6103c461049c366004614b64565b610d99565b61030b6104af366004614e78565b610e33565b6104767f000000000000000000000000000000000000000000000000000000000000000081565b6103f76104e9366004614fab565b6111c1565b6103f76104fc366004615059565b61155f565b6104767f000000000000000000000000000000000000000000000000000000000000000081565b61030b610536366004615059565b611758565b61054e61054936600461509f565b611926565b604051610315919061519d565b600454610476906001600160a01b031681565b6103f761057c3660046151b0565b611a64565b61047661058f366004614b64565b611afe565b6103f7611b09565b6103f76105aa3660046151f1565b611b1d565b6000546001600160a01b0316610476565b61030b6105ce366004615233565b611d2b565b6103f76105e13660046152c6565b611ecf565b6103786105f43660046152f4565b611fd7565b6103f7610607366004614d37565b611ffc565b61061f61061a3660046152f4565b6122d0565b60405163ffffffff9091168152602001610315565b61030b610642366004615317565b61237b565b6103f7610655366004615396565b6126f7565b6103f76106683660046153ce565b612852565b61037861067b366004614d37565b60036020526000908152604090205460ff1681565b6103f761069e3660046152c6565b612994565b6103f76106b13660046153fc565b612a1a565b6103786106c4366004615464565b6001600160a01b03918216600090815260026020908152604080832093909416825291909152205460ff1690565b6103f76107003660046153fc565b612b2b565b61030b610713366004614b64565b60016020526000908152604090205481565b6103f7610733366004615492565b612f53565b6103f7610746366004615506565b613049565b6103f7610759366004614d37565b61317e565b61037861076c366004614d54565b61320b565b61078461077f36600461556f565b613266565b60405167ffffffffffffffff9091168152602001610315565b6103786107ab366004614b64565b6135e3565b60006001600160a01b0383166108335760405162461bcd60e51b815260206004820152602b60248201527f455243313135353a2062616c616e636520717565727920666f7220746865207a60448201527f65726f206164647265737300000000000000000000000000000000000000000060648201526084015b60405180910390fd5b600061083e83610871565b50509050836001600160a01b0316816001600160a01b03160361086557600191505061086b565b60009150505b92915050565b600080600061087f846136b5565b9250925092509193909250565b60007fffffffff0000000000000000000000000000000000000000000000000000000082167f97a1873b00000000000000000000000000000000000000000000000000000000148061091f57507fffffffff0000000000000000000000000000000000000000000000000000000082167f150b7a0200000000000000000000000000000000000000000000000000000000145b8061086b575061086b826136ec565b600480546040517f0e89341c0000000000000000000000000000000000000000000000000000000081529182018390526060916001600160a01b0390911690630e89341c90602401600060405180830381865afa158015610993573d6000803e3d6000fd5b505050506040513d6000823e601f3d908101601f1916820160405261086b91908101906155f9565b816109c6813361320b565b6109ec5760405163168ab55d60e31b81526004810182905233602482015260440161082a565b82601060006109fa83610871565b5091505063ffffffff8282161615610a285760405163a2a7201360e01b81526004810184905260240161082a565b6040517f14ab90380000000000000000000000000000000000000000000000000000000081526004810187905267ffffffffffffffff861660248201527f00000000000000000000000000000000000000000000000000000000000000006001600160a01b0316906314ab9038906044015b600060405180830381600087803b158015610ab457600080fd5b505af1158015610ac8573d6000803e3d6000fd5b50505050505050505050565b6000336001600160a01b037f00000000000000000000000000000000000000000000000000000000000000001614610b38576040517f1931a53800000000000000000000000000000000000000000000000000000000815260040160405180910390fd5b600080808080610b4a8789018961567b565b84516020860120949950929750909550935091508990808214610ba3576040517fc65c3ccc000000000000000000000000000000000000000000000000000000008152600481018290526024810183905260440161082a565b6040517f28ed4f6c000000000000000000000000000000000000000000000000000000008152600481018390523060248201527f00000000000000000000000000000000000000000000000000000000000000006001600160a01b0316906328ed4f6c90604401600060405180830381600087803b158015610c2457600080fd5b505af1158015610c38573d6000803e3d6000fd5b50505050610c4987878787876137cf565b507f150b7a02000000000000000000000000000000000000000000000000000000009d9c50505050505050505050505050565b610c84613929565b600480547fffffffffffffffffffffffff0000000000000000000000000000000000000000166001600160a01b0392909216919091179055565b81610cc9813361320b565b610cef5760405163168ab55d60e31b81526004810182905233602482015260440161082a565b8260086000610cfd83610871565b5091505063ffffffff8282161615610d2b5760405163a2a7201360e01b81526004810184905260240161082a565b6040517f1896f70a000000000000000000000000000000000000000000000000000000008152600481018790526001600160a01b0386811660248301527f00000000000000000000000000000000000000000000000000000000000000001690631896f70a90604401610a9a565b60056020526000908152604090208054610db2906156f3565b80601f0160208091040260200160405190810160405280929190818152602001828054610dde906156f3565b8015610e2b5780601f10610e0057610100808354040283529160200191610e2b565b820191906000526020600020905b815481529060010190602001808311610e0e57829003601f168201915b505050505081565b600087610e40813361320b565b610e665760405163168ab55d60e31b81526004810182905233602482015260440161082a565b8888805190602001206000610ea28383604080516020808201949094528082019290925280518083038201815260609092019052805191012090565b6040517f02571be3000000000000000000000000000000000000000000000000000000008152600481018290529091506000906001600160a01b037f000000000000000000000000000000000000000000000000000000000000000016906302571be390602401602060405180830381865afa158015610f26573d6000803e3d6000fd5b505050506040513d601f19601f82011682018060405250810190610f4a9190615746565b90506001600160a01b038116610f94576000610f6585610871565b509150506020811615610f8e5760405163a2a7201360e01b81526004810184905260240161082a565b50610fca565b6000610f9f83610871565b509150506040811615610fc85760405163a2a7201360e01b81526004810184905260240161082a565b505b8b5160208d01206110028e82604080516020808201949094528082019290925280518083038201815260609092019052805191012090565b96506110108e888b8b613983565b975061101b876135e3565b6110ea576040517f5ef2c7f0000000000000000000000000000000000000000000000000000000008152600481018f9052602481018290523060448201526001600160a01b038c8116606483015267ffffffffffffffff8c1660848301527f00000000000000000000000000000000000000000000000000000000000000001690635ef2c7f09060a401600060405180830381600087803b1580156110bf57600080fd5b505af11580156110d3573d6000803e3d6000fd5b505050506110e58e888f8f8d8d6139c9565b6111b0565b6040517f5ef2c7f0000000000000000000000000000000000000000000000000000000008152600481018f9052602481018290523060448201526001600160a01b038c8116606483015267ffffffffffffffff8c1660848301527f00000000000000000000000000000000000000000000000000000000000000001690635ef2c7f09060a401600060405180830381600087803b15801561118a57600080fd5b505af115801561119e573d6000803e3d6000fd5b505050506111b08e888f8f8d8d613a83565b505050505050979650505050505050565b81518351146112385760405162461bcd60e51b815260206004820152602860248201527f455243313135353a2069647320616e6420616d6f756e7473206c656e6774682060448201527f6d69736d61746368000000000000000000000000000000000000000000000000606482015260840161082a565b6001600160a01b0384166112b45760405162461bcd60e51b815260206004820152602560248201527f455243313135353a207472616e7366657220746f20746865207a65726f20616460448201527f6472657373000000000000000000000000000000000000000000000000000000606482015260840161082a565b6001600160a01b0385163314806112ee57506001600160a01b038516600090815260026020908152604080832033845290915290205460ff165b6113605760405162461bcd60e51b815260206004820152603260248201527f455243313135353a207472616e736665722063616c6c6572206973206e6f742060448201527f6f776e6572206e6f7220617070726f7665640000000000000000000000000000606482015260840161082a565b60005b83518110156114f257600084828151811061138057611380615763565b60200260200101519050600084838151811061139e5761139e615763565b6020026020010151905060008060006113b685610871565b9250925092506113c7826004161590565b6113e75760405163a2a7201360e01b81526004810186905260240161082a565b83600114801561140857508a6001600160a01b0316836001600160a01b0316145b61147a5760405162461bcd60e51b815260206004820152602a60248201527f455243313135353a20696e73756666696369656e742062616c616e636520666f60448201527f72207472616e7366657200000000000000000000000000000000000000000000606482015260840161082a565b60008581526001602052604090206001600160a01b038b1677ffffffff000000000000000000000000000000000000000060a085901b16177fffffffffffffffff00000000000000000000000000000000000000000000000060c084901b161790555050505050806114eb906157c1565b9050611363565b50836001600160a01b0316856001600160a01b0316336001600160a01b03167f4a39dc06d4c0dbc64b70af90fd698a233a518aa5d07e595d983b8c0526c8f7fb86866040516115429291906157f9565b60405180910390a4611558338686868686613b3e565b5050505050565b604080516020808201879052818301869052825180830384018152606090920190925280519101206000808061159484610871565b91945092509050600080806115a88b610871565b9093509150507f2fae1b0734e78f07884ffd991ed6dcdd415b3b6d566ccb7716b283e56ca172068b016116ae576115df873361320b565b6116055760405163168ab55d60e31b81526004810188905233602482015260440161082a565b6040517fd6e4fa86000000000000000000000000000000000000000000000000000000008152600481018b90527f00000000000000000000000000000000000000000000000000000000000000006001600160a01b03169063d6e4fa8690602401602060405180830381865afa158015611683573d6000803e3d6000fd5b505050506040513d601f19601f820116820180604052508101906116a79190615827565b92506116e2565b6116b88b3361320b565b6116de5760405163168ab55d60e31b81526004810188905233602482015260440161082a565b8092505b6116ed878a84613d4a565b6116f8888585613d80565b9750604085161580159061171a57508463ffffffff1689861763ffffffff1614155b1561173b5760405163a2a7201360e01b81526004810188905260240161082a565b9784179761174b87878b8b613dca565b5050505050505050505050565b3360009081526003602052604081205460ff166117dd5760405162461bcd60e51b815260206004820152602860248201527f436f6e74726f6c6c61626c653a2043616c6c6572206973206e6f74206120636f60448201527f6e74726f6c6c6572000000000000000000000000000000000000000000000000606482015260840161082a565b604080517fd051e4f8cb1870f877b00266e1292322bea4c492a9933488e94d7c1a935e8dfa602080830191909152818301889052825180830384018152606090920190925280519101206000906040517fc475abff00000000000000000000000000000000000000000000000000000000815260048101889052602481018790529091507f00000000000000000000000000000000000000000000000000000000000000006001600160a01b03169063c475abff906044016020604051808303816000875af11580156118b4573d6000803e3d6000fd5b505050506040513d601f19601f820116820180604052508101906118d89190615827565b91506118e3816135e3565b1561191d57600080806118f584610871565b925092509250611906868287613d80565b9550611919848460408a86171789613e26565b5050505b50949350505050565b6060815183511461199f5760405162461bcd60e51b815260206004820152602960248201527f455243313135353a206163636f756e747320616e6420696473206c656e67746860448201527f206d69736d617463680000000000000000000000000000000000000000000000606482015260840161082a565b6000835167ffffffffffffffff8111156119bb576119bb614d84565b6040519080825280602002602001820160405280156119e4578160200160208202803683370190505b50905060005b8451811015611a5c57611a2f858281518110611a0857611a08615763565b6020026020010151858381518110611a2257611a22615763565b60200260200101516107b0565b828281518110611a4157611a41615763565b6020908102919091010152611a55816157c1565b90506119ea565b509392505050565b611a6c613929565b6040517fa9059cbb0000000000000000000000000000000000000000000000000000000081526001600160a01b0383811660048301526024820183905284169063a9059cbb906044016020604051808303816000875af1158015611ad4573d6000803e3d6000fd5b505050506040513d601f19601f82011682018060405250810190611af89190615840565b50505050565b600061086b82613e97565b611b11613929565b611b1b6000613ead565b565b604080517fd051e4f8cb1870f877b00266e1292322bea4c492a9933488e94d7c1a935e8dfa60208083019190915281830186905282518083038401815260609092019092528051910120611b71813361320b565b611b975760405163168ab55d60e31b81526004810182905233602482015260440161082a565b6001600160a01b038216611be2576040517f5949361a0000000000000000000000000000000000000000000000000000000081526001600160a01b038316600482015260240161082a565b306001600160a01b03841603611c2f576040517f5949361a0000000000000000000000000000000000000000000000000000000081526001600160a01b038416600482015260240161082a565b604080517fd051e4f8cb1870f877b00266e1292322bea4c492a9933488e94d7c1a935e8dfa60208083019190915281830187905282518083038401815260609092019092528051910120611c84905b83613f15565b6040517f42842e0e0000000000000000000000000000000000000000000000000000000081523060048201526001600160a01b038481166024830152604482018690527f000000000000000000000000000000000000000000000000000000000000000016906342842e0e90606401600060405180830381600087803b158015611d0d57600080fd5b505af1158015611d21573d6000803e3d6000fd5b5050505050505050565b3360009081526003602052604081205460ff16611db05760405162461bcd60e51b815260206004820152602860248201527f436f6e74726f6c6c61626c653a2043616c6c6572206973206e6f74206120636f60448201527f6e74726f6c6c6572000000000000000000000000000000000000000000000000606482015260840161082a565b60008888604051611dc292919061585d565b6040519081900381207ffca247ac000000000000000000000000000000000000000000000000000000008252600482018190523060248301526044820188905291507f00000000000000000000000000000000000000000000000000000000000000006001600160a01b03169063fca247ac906064016020604051808303816000875af1158015611e57573d6000803e3d6000fd5b505050506040513d601f19601f82011682018060405250810190611e7b9190615827565b9150611ec289898080601f0160208091040260200160405190810160405280939291908181526020018383808284376000920191909152508b9250889150879050896137cf565b5050979650505050505050565b6001600160a01b0382163303611f4d5760405162461bcd60e51b815260206004820152602960248201527f455243313135353a2073657474696e6720617070726f76616c2073746174757360448201527f20666f722073656c660000000000000000000000000000000000000000000000606482015260840161082a565b3360008181526002602090815260408083206001600160a01b0387168085529083529281902080547fffffffffffffffffffffffffffffffffffffffffffffffffffffffffffffff001686151590811790915590519081529192917f17307eab39ab6107e8899845ad3d59bd9653f200f220920489ca2b5937696c31910160405180910390a35050565b600080611fe384610871565b50841663ffffffff908116908516149250505092915050565b612004613929565b6006546001600160a01b031615612156576006546040517fa22cb4650000000000000000000000000000000000000000000000000000000081526001600160a01b039182166004820152600060248201527f00000000000000000000000000000000000000000000000000000000000000009091169063a22cb46590604401600060405180830381600087803b15801561209d57600080fd5b505af11580156120b1573d6000803e3d6000fd5b50506006546040517fa22cb4650000000000000000000000000000000000000000000000000000000081526001600160a01b039182166004820152600060248201527f0000000000000000000000000000000000000000000000000000000000000000909116925063a22cb4659150604401600060405180830381600087803b15801561213d57600080fd5b505af1158015612151573d6000803e3d6000fd5b505050505b600680547fffffffffffffffffffffffff0000000000000000000000000000000000000000166001600160a01b038316908117909155156122cd576006546040517fa22cb4650000000000000000000000000000000000000000000000000000000081526001600160a01b039182166004820152600160248201527f00000000000000000000000000000000000000000000000000000000000000009091169063a22cb46590604401600060405180830381600087803b15801561221957600080fd5b505af115801561222d573d6000803e3d6000fd5b50506006546040517fa22cb4650000000000000000000000000000000000000000000000000000000081526001600160a01b039182166004820152600160248201527f0000000000000000000000000000000000000000000000000000000000000000909116925063a22cb4659150604401600060405180830381600087803b1580156122b957600080fd5b505af1158015611558573d6000803e3d6000fd5b50565b6000826122dd813361320b565b6123035760405163168ab55d60e31b81526004810182905233602482015260440161082a565b836002600061231183610871565b5091505063ffffffff828216161561233f5760405163a2a7201360e01b81526004810184905260240161082a565b6123498787614020565b600080806123568a610871565b925092509250818917985061236d8a848b84613dca565b509698975050505050505050565b600086612388813361320b565b6123ae5760405163168ab55d60e31b81526004810182905233602482015260440161082a565b8787876040516123bf92919061585d565b604051809103902060006123fa8383604080516020808201949094528082019290925280518083038201815260609092019052805191012090565b6040517f02571be3000000000000000000000000000000000000000000000000000000008152600481018290529091506000906001600160a01b037f000000000000000000000000000000000000000000000000000000000000000016906302571be390602401602060405180830381865afa15801561247e573d6000803e3d6000fd5b505050506040513d601f19601f820116820180604052508101906124a29190615746565b90506001600160a01b0381166124ec5760006124bd85610871565b5091505060208116156124e65760405163a2a7201360e01b81526004810184905260240161082a565b50612522565b60006124f783610871565b5091505060408116156125205760405163a2a7201360e01b81526004810184905260240161082a565b505b60008b8b60405161253492919061585d565b6040518091039020905061256f8d82604080516020808201949094528082019290925280518083038201815260609092019052805191012090565b965061257d8d888b8b613983565b9750612588876135e3565b612695576040517f06ab5923000000000000000000000000000000000000000000000000000000008152600481018e9052602481018290523060448201526001600160a01b037f000000000000000000000000000000000000000000000000000000000000000016906306ab5923906064016020604051808303816000875af1158015612619573d6000803e3d6000fd5b505050506040513d601f19601f8201168201806040525081019061263d9190615827565b506126908d888e8e8080601f016020809104026020016040519081016040528093929190818152602001838380828437600081840152601f19601f820116905080830192505050505050508d8d8d6139c9565b6126e7565b6126e78d888e8e8080601f016020809104026020016040519081016040528093929190818152602001838380828437600081840152601f19601f820116905080830192505050505050508d8d8d613a83565b5050505050509695505050505050565b83612702813361320b565b6127285760405163168ab55d60e31b81526004810182905233602482015260440161082a565b84601c600061273683610871565b5091505063ffffffff82821616156127645760405163a2a7201360e01b81526004810184905260240161082a565b6040517fcf408823000000000000000000000000000000000000000000000000000000008152600481018990523060248201526001600160a01b03878116604483015267ffffffffffffffff871660648301527f0000000000000000000000000000000000000000000000000000000000000000169063cf40882390608401600060405180830381600087803b1580156127fd57600080fd5b505af1158015612811573d6000803e3d6000fd5b5050505060006128238960001c610871565b5050905061284781898b60001c60016040518060200160405280600081525061404f565b505050505050505050565b60408051602080820186905281830185905282518083038401815260609092019092528051910120612884813361320b565b6128aa5760405163168ab55d60e31b81526004810182905233602482015260440161082a565b7f2fae1b0734e78f07884ffd991ed6dcdd415b3b6d566ccb7716b283e56ca172068401612903576040517f615a470300000000000000000000000000000000000000000000000000000000815260040160405180910390fd5b6001600160a01b038216158061292157506001600160a01b03821630145b15612963576040517f5949361a0000000000000000000000000000000000000000000000000000000081526001600160a01b038316600482015260240161082a565b60408051602080820187905281830186905282518083038401815260609092019092528051910120611af890611c7e565b61299c613929565b6001600160a01b03821660008181526003602090815260409182902080547fffffffffffffffffffffffffffffffffffffffffffffffffffffffffffffff001685151590811790915591519182527f4c97694570a07277810af7e5669ffd5f6a2d6b74b6e9a274b8b870fd5114cf8791015b60405180910390a25050565b60008484604051612a2c92919061585d565b60405190819003902090506000612a8a7fd051e4f8cb1870f877b00266e1292322bea4c492a9933488e94d7c1a935e8dfa83604080516020808201949094528082019290925280518083038201815260609092019052805191012090565b9050600080612a98836141fd565b6006546040517ff9547a9e0000000000000000000000000000000000000000000000000000000081529294509092506001600160a01b03169063f9547a9e90612aef908b908b908b90889088908d90600401615898565b600060405180830381600087803b158015612b0957600080fd5b505af1158015612b1d573d6000803e3d6000fd5b505050505050505050505050565b600080612b72600087878080601f01602080910402602001604051908101604052809392919081815260200183838082843760009201919091525092939250506142929050565b915091506000612bbb8288888080601f01602080910402602001604051908101604052809392919081815260200183838082843760009201919091525092939250506143499050565b604080516020808201849052818301879052825180830384018152606090920190925280519101209091507f2fae1b0734e78f07884ffd991ed6dcdd415b3b6d566ccb7716b283e56ca172068201612c3f576040517f615a470300000000000000000000000000000000000000000000000000000000815260040160405180910390fd5b6040517f02571be3000000000000000000000000000000000000000000000000000000008152600481018290526000907f00000000000000000000000000000000000000000000000000000000000000006001600160a01b0316906302571be390602401602060405180830381865afa158015612cc0573d6000803e3d6000fd5b505050506040513d601f19601f82011682018060405250810190612ce49190615746565b90506001600160a01b0381163314801590612da557506040517fe985e9c50000000000000000000000000000000000000000000000000000000081526001600160a01b0382811660048301523360248301527f0000000000000000000000000000000000000000000000000000000000000000169063e985e9c590604401602060405180830381865afa158015612d7f573d6000803e3d6000fd5b505050506040513d601f19601f82011682018060405250810190612da39190615840565b155b15612dcc5760405163168ab55d60e31b81526004810183905233602482015260440161082a565b6001600160a01b03861615612e77576040517f1896f70a000000000000000000000000000000000000000000000000000000008152600481018390526001600160a01b0387811660248301527f00000000000000000000000000000000000000000000000000000000000000001690631896f70a90604401600060405180830381600087803b158015612e5e57600080fd5b505af1158015612e72573d6000803e3d6000fd5b505050505b6040517f5b0fc9c3000000000000000000000000000000000000000000000000000000008152600481018390523060248201527f00000000000000000000000000000000000000000000000000000000000000006001600160a01b031690635b0fc9c390604401600060405180830381600087803b158015612ef857600080fd5b505af1158015612f0c573d6000803e3d6000fd5b50505050612847828a8a8080601f01602080910402602001604051908101604052809392919081815260200183838082843760009201829052508d93509150819050614408565b60008484604051612f6592919061585d565b604051809103902090506000612fa28783604080516020808201949094528082019290925280518083038201815260609092019052805191012090565b9050600080612fb0836141fd565b6006546040517f24c1af440000000000000000000000000000000000000000000000000000000081529294509092506001600160a01b0316906324c1af449061300c908c908c908c908c908c906000908b908b906004016158ee565b600060405180830381600087803b15801561302657600080fd5b505af115801561303a573d6000803e3d6000fd5b50505050505050505050505050565b6001600160a01b0384166130c55760405162461bcd60e51b815260206004820152602560248201527f455243313135353a207472616e7366657220746f20746865207a65726f20616460448201527f6472657373000000000000000000000000000000000000000000000000000000606482015260840161082a565b6001600160a01b0385163314806130ff57506001600160a01b038516600090815260026020908152604080832033845290915290205460ff165b6131715760405162461bcd60e51b815260206004820152602960248201527f455243313135353a2063616c6c6572206973206e6f74206f776e6572206e6f7260448201527f20617070726f7665640000000000000000000000000000000000000000000000606482015260840161082a565b611558858585858561404f565b613186613929565b6001600160a01b0381166132025760405162461bcd60e51b815260206004820152602660248201527f4f776e61626c653a206e6577206f776e657220697320746865207a65726f206160448201527f6464726573730000000000000000000000000000000000000000000000000000606482015260840161082a565b6122cd81613ead565b60008061321784611afe565b9050826001600160a01b0316816001600160a01b0316148061325e57506001600160a01b0380821660009081526002602090815260408083209387168352929052205460ff165b949350505050565b600080878760405161327992919061585d565b6040519081900381207f6352211e0000000000000000000000000000000000000000000000000000000082526004820181905291506000907f00000000000000000000000000000000000000000000000000000000000000006001600160a01b031690636352211e90602401602060405180830381865afa158015613302573d6000803e3d6000fd5b505050506040513d601f19601f820116820180604052508101906133269190615746565b90506001600160a01b03811633148015906133e757506040517fe985e9c50000000000000000000000000000000000000000000000000000000081526001600160a01b0382811660048301523360248301527f0000000000000000000000000000000000000000000000000000000000000000169063e985e9c590604401602060405180830381865afa1580156133c1573d6000803e3d6000fd5b505050506040513d601f19601f820116820180604052508101906133e59190615840565b155b1561345757604080517fd051e4f8cb1870f877b00266e1292322bea4c492a9933488e94d7c1a935e8dfa6020808301919091528183018590528251808303840181526060830193849052805191012063168ab55d60e31b909252606481019190915233608482015260a40161082a565b6040517f23b872dd0000000000000000000000000000000000000000000000000000000081526001600160a01b038281166004830152306024830152604482018490527f000000000000000000000000000000000000000000000000000000000000000016906323b872dd90606401600060405180830381600087803b1580156134e057600080fd5b505af11580156134f4573d6000803e3d6000fd5b50506040517f28ed4f6c000000000000000000000000000000000000000000000000000000008152600481018590523060248201527f00000000000000000000000000000000000000000000000000000000000000006001600160a01b031692506328ed4f6c9150604401600060405180830381600087803b15801561357957600080fd5b505af115801561358d573d6000803e3d6000fd5b505050506135d689898080601f0160208091040260200160405190810160405280939291908181526020018383808284376000920191909152508b92508a9150899050886137cf565b9998505050505050505050565b6000806135ef83611afe565b6001600160a01b03161415801561086b57506040517f02571be30000000000000000000000000000000000000000000000000000000081526004810183905230906001600160a01b037f000000000000000000000000000000000000000000000000000000000000000016906302571be390602401602060405180830381865afa158015613681573d6000803e3d6000fd5b505050506040513d601f19601f820116820180604052508101906136a59190615746565b6001600160a01b03161492915050565b6000818152600160205260408120549060c082901c82428210156136dc57600092506136e4565b60a081901c92505b509193909250565b60007fffffffff0000000000000000000000000000000000000000000000000000000082167fd9b67a2600000000000000000000000000000000000000000000000000000000148061377f57507fffffffff0000000000000000000000000000000000000000000000000000000082167f0e89341c00000000000000000000000000000000000000000000000000000000145b8061086b57507f01ffc9a7000000000000000000000000000000000000000000000000000000007fffffffff0000000000000000000000000000000000000000000000000000000083161461086b565b845160208601206000908161382b7fd051e4f8cb1870f877b00266e1292322bea4c492a9933488e94d7c1a935e8dfa83604080516020808201949094528082019290925280518083038201815260609092019052805191012090565b9050600061383a828488614472565b9750915061387190507fd051e4f8cb1870f877b00266e1292322bea4c492a9933488e94d7c1a935e8dfa838b8b60408c178b6139c9565b6001600160a01b0385161561391c576040517f1896f70a000000000000000000000000000000000000000000000000000000008152600481018390526001600160a01b0386811660248301527f00000000000000000000000000000000000000000000000000000000000000001690631896f70a90604401600060405180830381600087803b15801561390357600080fd5b505af1158015613917573d6000803e3d6000fd5b505050505b5093979650505050505050565b6000546001600160a01b03163314611b1b5760405162461bcd60e51b815260206004820181905260248201527f4f776e61626c653a2063616c6c6572206973206e6f7420746865206f776e6572604482015260640161082a565b60008061398f85610871565b925050506000806139a28860001c610871565b92509250506139b2878784613d4a565b6139bd858483613d80565b98975050505050505050565b60008681526005602052604081208054613a6b9187916139e8906156f3565b80601f0160208091040260200160405190810160405280929190818152602001828054613a14906156f3565b8015613a615780601f10613a3657610100808354040283529160200191613a61565b820191906000526020600020905b815481529060010190602001808311613a4457829003601f168201915b505050505061454a565b9050613a7a8682868686614408565b50505050505050565b6000613a8e86611afe565b90506000613ab486600560008b815260200190815260200160002080546139e8906156f3565b6000888152600560205260409020805491925090613ad1906156f3565b9050600003613af4576000878152600560205260409020613af2828261599c565b505b613b0087838686613dca565b6001600160a01b038516613b1e57613b19876000613f15565b611d21565b611d2182868960001c60016040518060200160405280600081525061404f565b6001600160a01b0384163b15613d42576040517fbc197c810000000000000000000000000000000000000000000000000000000081526001600160a01b0385169063bc197c8190613b9b9089908990889088908890600401615a98565b6020604051808303816000875af1925050508015613bd6575060408051601f3d908101601f19168201909252613bd391810190615aea565b60015b613c8b57613be2615b07565b806308c379a003613c1b5750613bf6615b23565b80613c015750613c1d565b8060405162461bcd60e51b815260040161082a9190614c1f565b505b60405162461bcd60e51b815260206004820152603460248201527f455243313135353a207472616e7366657220746f206e6f6e204552433131353560448201527f526563656976657220696d706c656d656e746572000000000000000000000000606482015260840161082a565b7fffffffff0000000000000000000000000000000000000000000000000000000081167fbc197c810000000000000000000000000000000000000000000000000000000014613a7a5760405162461bcd60e51b815260206004820152602860248201527f455243313135353a204552433131353552656365697665722072656a6563746560448201527f6420746f6b656e73000000000000000000000000000000000000000000000000606482015260840161082a565b505050505050565b6040828116146001821615818015613d5f5750805b156115585760405163a2a7201360e01b81526004810186905260240161082a565b60008167ffffffffffffffff168467ffffffffffffffff161115613da2578193505b8267ffffffffffffffff168467ffffffffffffffff161015613dc2578293505b509192915050565b613dd684848484613e26565b6040805163ffffffff8416815267ffffffffffffffff8316602082015285917f936318e296f824e203b086d97bb155a0200cec4847efea1fb4b9b7f924157355910160405180910390a250505050565b613e3084836145f3565b60008481526001602052604090206001600160a01b03841677ffffffff000000000000000000000000000000000000000060a085901b16177fffffffffffffffff00000000000000000000000000000000000000000000000060c084901b16179055611af8565b600080613ea383610871565b5090949350505050565b600080546001600160a01b038381167fffffffffffffffffffffffff0000000000000000000000000000000000000000831681178455604051919092169283917f8be0079c531659141344cd1fd0a4f28419497f9722a3daafe3b4186f6b6457e09190a35050565b613f20826001611fd7565b15613f415760405163a2a7201360e01b81526004810183905260240161082a565b613f4a8261462c565b6040517f5b0fc9c3000000000000000000000000000000000000000000000000000000008152600481018390526001600160a01b0382811660248301527f00000000000000000000000000000000000000000000000000000000000000001690635b0fc9c390604401600060405180830381600087803b158015613fcd57600080fd5b505af1158015613fe1573d6000803e3d6000fd5b50506040516001600160a01b03841681528492507fee2ba1195c65bcf218a83d874335c6bf9d9067b4c672f3c3bf16cf40de7586c49150602001612a0e565b604081161561404b5760405163168ab55d60e31b81526004810183905233602482015260440161082a565b5050565b600080600061405d86610871565b92509250925061406e826004161590565b61408e5760405163a2a7201360e01b81526004810187905260240161082a565b8460011480156140af5750876001600160a01b0316836001600160a01b0316145b6141215760405162461bcd60e51b815260206004820152602a60248201527f455243313135353a20696e73756666696369656e742062616c616e636520666f60448201527f72207472616e7366657200000000000000000000000000000000000000000000606482015260840161082a565b866001600160a01b0316836001600160a01b03160361414257505050611558565b60008681526001602052604090206001600160a01b03881677ffffffff000000000000000000000000000000000000000060a085901b16177fffffffffffffffff00000000000000000000000000000000000000000000000060c084901b1617905560408051878152602081018790526001600160a01b03808a1692908b169133917fc3d58168c5ae7397731d063d5bbf3d657854427343f4c083240f7aacaa2d0f62910160405180910390a4611d213389898989896146e7565b60065460009081906001600160a01b0316614244576040517f24c1d6d400000000000000000000000000000000000000000000000000000000815260040160405180910390fd5b61424e833361320b565b6142745760405163168ab55d60e31b81526004810184905233602482015260440161082a565b61427d83610871565b909350915061428d90508361462c565b915091565b600080835183106142e55760405162461bcd60e51b815260206004820152601e60248201527f726561644c6162656c3a20496e646578206f7574206f6620626f756e64730000604482015260640161082a565b60008484815181106142f9576142f9615763565b016020015160f81c905080156143255761431e85614318866001615bcb565b83614842565b925061432a565b600092505b6143348185615bcb565b61433f906001615bcb565b9150509250929050565b60008060006143588585614292565b9092509050816143ca57600185516143709190615bde565b84146143be5760405162461bcd60e51b815260206004820152601d60248201527f6e616d65686173683a204a756e6b20617420656e64206f66206e616d65000000604482015260640161082a565b506000915061086b9050565b6143d48582614349565b6040805160208101929092528101839052606001604051602081830303815290604052805190602001209250505092915050565b6000858152600560205260409020614420858261599c565b5061442d85848484614866565b847f8ce7013e8abebc55c3890a68f5a27c67c3f7efa64e584de5fb22363c606fd340858585856040516144639493929190615bf1565b60405180910390a25050505050565b600080808061448087610871565b6040517fd6e4fa86000000000000000000000000000000000000000000000000000000008152600481018a905292965090945091506000907f00000000000000000000000000000000000000000000000000000000000000006001600160a01b03169063d6e4fa8690602401602060405180830381865afa158015614509573d6000803e3d6000fd5b505050506040513d601f19601f8201168201806040525081019061452d9190615827565b905061453a868383613d80565b9550859250505093509350939050565b6060600183511015614588576040517f280dacb600000000000000000000000000000000000000000000000000000000815260040160405180910390fd5b60ff835111156145c657826040517fe3ba295f00000000000000000000000000000000000000000000000000000000815260040161082a9190614c1f565b825183836040516020016145dc93929190615c39565b604051602081830303815290604052905092915050565b63ffffffbf81161580159061460b5750604181811614155b1561404b5760405163a2a7201360e01b81526004810183905260240161082a565b600080600061463a84610871565b600087815260016020526040902077ffffffff000000000000000000000000000000000000000060a084901b167fffffffffffffffff00000000000000000000000000000000000000000000000060c084901b161790559194509250905060408051858152600160208201526000916001600160a01b0386169133917fc3d58168c5ae7397731d063d5bbf3d657854427343f4c083240f7aacaa2d0f62910160405180910390a450505050565b6001600160a01b0384163b15613d42576040517ff23a6e610000000000000000000000000000000000000000000000000000000081526001600160a01b0385169063f23a6e61906147449089908990889088908890600401615c9a565b6020604051808303816000875af192505050801561477f575060408051601f3d908101601f1916820190925261477c91810190615aea565b60015b61478b57613be2615b07565b7fffffffff0000000000000000000000000000000000000000000000000000000081167ff23a6e610000000000000000000000000000000000000000000000000000000014613a7a5760405162461bcd60e51b815260206004820152602860248201527f455243313135353a204552433131353552656365697665722072656a6563746560448201527f6420746f6b656e73000000000000000000000000000000000000000000000000606482015260840161082a565b82516000906148518385615bcb565b111561485c57600080fd5b5091016020012090565b61487084836145f3565b600061487b85611afe565b90506001600160a01b038116156148cc576148958561462c565b6040516000815285907fee2ba1195c65bcf218a83d874335c6bf9d9067b4c672f3c3bf16cf40de7586c49060200160405180910390a25b6115588585858583600080806148e184610871565b9250925092508467ffffffffffffffff168167ffffffffffffffff161115614907578094505b6001600160a01b0383161561495e5760405162461bcd60e51b815260206004820152601f60248201527f455243313135353a206d696e74206f66206578697374696e6720746f6b656e00604482015260640161082a565b6001600160a01b0387166149da5760405162461bcd60e51b815260206004820152602160248201527f455243313135353a206d696e7420746f20746865207a65726f2061646472657360448201527f7300000000000000000000000000000000000000000000000000000000000000606482015260840161082a565b306001600160a01b03881603614a585760405162461bcd60e51b815260206004820152603460248201527f455243313135353a206e65774f776e65722063616e6e6f74206265207468652060448201527f4e616d655772617070657220636f6e7472616374000000000000000000000000606482015260840161082a565b60008481526001602052604090206001600160a01b03881677ffffffff000000000000000000000000000000000000000088851760a01b16177fffffffffffffffff00000000000000000000000000000000000000000000000060c088901b1617905560408051858152600160208201526001600160a01b0389169160009133917fc3d58168c5ae7397731d063d5bbf3d657854427343f4c083240f7aacaa2d0f62910160405180910390a4611d2133600089876001604051806020016040528060008152506146e7565b6001600160a01b03811681146122cd57600080fd5b60008060408385031215614b4b57600080fd5b8235614b5681614b23565b946020939093013593505050565b600060208284031215614b7657600080fd5b5035919050565b7fffffffff00000000000000000000000000000000000000000000000000000000811681146122cd57600080fd5b600060208284031215614bbd57600080fd5b8135614bc881614b7d565b9392505050565b60005b83811015614bea578181015183820152602001614bd2565b50506000910152565b60008151808452614c0b816020860160208601614bcf565b601f01601f19169290920160200192915050565b602081526000614bc86020830184614bf3565b803567ffffffffffffffff81168114614c4a57600080fd5b919050565b60008060408385031215614c6257600080fd5b82359150614c7260208401614c32565b90509250929050565b60008083601f840112614c8d57600080fd5b50813567ffffffffffffffff811115614ca557600080fd5b602083019150836020828501011115614cbd57600080fd5b9250929050565b600080600080600060808688031215614cdc57600080fd5b8535614ce781614b23565b94506020860135614cf781614b23565b935060408601359250606086013567ffffffffffffffff811115614d1a57600080fd5b614d2688828901614c7b565b969995985093965092949392505050565b600060208284031215614d4957600080fd5b8135614bc881614b23565b60008060408385031215614d6757600080fd5b823591506020830135614d7981614b23565b809150509250929050565b7f4e487b7100000000000000000000000000000000000000000000000000000000600052604160045260246000fd5b601f19601f830116810181811067ffffffffffffffff82111715614dd957614dd9614d84565b6040525050565b600067ffffffffffffffff821115614dfa57614dfa614d84565b50601f01601f191660200190565b600082601f830112614e1957600080fd5b8135614e2481614de0565b604051614e318282614db3565b828152856020848701011115614e4657600080fd5b82602086016020830137600092810160200192909252509392505050565b803563ffffffff81168114614c4a57600080fd5b600080600080600080600060e0888a031215614e9357600080fd5b87359650602088013567ffffffffffffffff811115614eb157600080fd5b614ebd8a828b01614e08565b9650506040880135614ece81614b23565b94506060880135614ede81614b23565b9350614eec60808901614c32565b9250614efa60a08901614e64565b9150614f0860c08901614c32565b905092959891949750929550565b600067ffffffffffffffff821115614f3057614f30614d84565b5060051b60200190565b600082601f830112614f4b57600080fd5b81356020614f5882614f16565b604051614f658282614db3565b83815260059390931b8501820192828101915086841115614f8557600080fd5b8286015b84811015614fa05780358352918301918301614f89565b509695505050505050565b600080600080600060a08688031215614fc357600080fd5b8535614fce81614b23565b94506020860135614fde81614b23565b9350604086013567ffffffffffffffff80821115614ffb57600080fd5b61500789838a01614f3a565b9450606088013591508082111561501d57600080fd5b61502989838a01614f3a565b9350608088013591508082111561503f57600080fd5b5061504c88828901614e08565b9150509295509295909350565b6000806000806080858703121561506f57600080fd5b843593506020850135925061508660408601614e64565b915061509460608601614c32565b905092959194509250565b600080604083850312156150b257600080fd5b823567ffffffffffffffff808211156150ca57600080fd5b818501915085601f8301126150de57600080fd5b813560206150eb82614f16565b6040516150f88282614db3565b83815260059390931b850182019282810191508984111561511857600080fd5b948201945b8386101561513f57853561513081614b23565b8252948201949082019061511d565b9650508601359250508082111561515557600080fd5b5061433f85828601614f3a565b600081518084526020808501945080840160005b8381101561519257815187529582019590820190600101615176565b509495945050505050565b602081526000614bc86020830184615162565b6000806000606084860312156151c557600080fd5b83356151d081614b23565b925060208401356151e081614b23565b929592945050506040919091013590565b60008060006060848603121561520657600080fd5b83359250602084013561521881614b23565b9150604084013561522881614b23565b809150509250925092565b600080600080600080600060c0888a03121561524e57600080fd5b873567ffffffffffffffff81111561526557600080fd5b6152718a828b01614c7b565b909850965050602088013561528581614b23565b945060408801359350606088013561529c81614b23565b92506152aa60808901614e64565b9150614f0860a08901614c32565b80151581146122cd57600080fd5b600080604083850312156152d957600080fd5b82356152e481614b23565b91506020830135614d79816152b8565b6000806040838503121561530757600080fd5b82359150614c7260208401614e64565b60008060008060008060a0878903121561533057600080fd5b86359550602087013567ffffffffffffffff81111561534e57600080fd5b61535a89828a01614c7b565b909650945050604087013561536e81614b23565b925061537c60608801614e64565b915061538a60808801614c32565b90509295509295509295565b600080600080608085870312156153ac57600080fd5b8435935060208501356153be81614b23565b9250604085013561508681614b23565b6000806000606084860312156153e357600080fd5b8335925060208401359150604084013561522881614b23565b6000806000806060858703121561541257600080fd5b843567ffffffffffffffff81111561542957600080fd5b61543587828801614c7b565b909550935050602085013561544981614b23565b9150604085013561545981614b23565b939692955090935050565b6000806040838503121561547757600080fd5b823561548281614b23565b91506020830135614d7981614b23565b6000806000806000608086880312156154aa57600080fd5b85359450602086013567ffffffffffffffff8111156154c857600080fd5b6154d488828901614c7b565b90955093505060408601356154e881614b23565b915060608601356154f881614b23565b809150509295509295909350565b600080600080600060a0868803121561551e57600080fd5b853561552981614b23565b9450602086013561553981614b23565b93506040860135925060608601359150608086013567ffffffffffffffff81111561556357600080fd5b61504c88828901614e08565b60008060008060008060a0878903121561558857600080fd5b863567ffffffffffffffff81111561559f57600080fd5b6155ab89828a01614c7b565b90975095505060208701356155bf81614b23565b93506155cd60408801614e64565b92506155db60608801614c32565b915060808701356155eb81614b23565b809150509295509295509295565b60006020828403121561560b57600080fd5b815167ffffffffffffffff81111561562257600080fd5b8201601f8101841361563357600080fd5b805161563e81614de0565b60405161564b8282614db3565b82815286602084860101111561566057600080fd5b615671836020830160208701614bcf565b9695505050505050565b600080600080600060a0868803121561569357600080fd5b853567ffffffffffffffff8111156156aa57600080fd5b6156b688828901614e08565b95505060208601356156c781614b23565b93506156d560408701614e64565b92506156e360608701614c32565b915060808601356154f881614b23565b600181811c9082168061570757607f821691505b602082108103615740577f4e487b7100000000000000000000000000000000000000000000000000000000600052602260045260246000fd5b50919050565b60006020828403121561575857600080fd5b8151614bc881614b23565b7f4e487b7100000000000000000000000000000000000000000000000000000000600052603260045260246000fd5b7f4e487b7100000000000000000000000000000000000000000000000000000000600052601160045260246000fd5b60007fffffffffffffffffffffffffffffffffffffffffffffffffffffffffffffffff82036157f2576157f2615792565b5060010190565b60408152600061580c6040830185615162565b828103602084015261581e8185615162565b95945050505050565b60006020828403121561583957600080fd5b5051919050565b60006020828403121561585257600080fd5b8151614bc8816152b8565b8183823760009101908152919050565b818352818160208501375060006020828401015260006020601f19601f840116840101905092915050565b60a0815260006158ac60a08301888a61586d565b90506001600160a01b03808716602084015263ffffffff8616604084015267ffffffffffffffff85166060840152808416608084015250979650505050505050565b88815260e06020820152600061590860e08301898b61586d565b6001600160a01b03978816604084015295909616606082015267ffffffffffffffff938416608082015263ffffffff9290921660a083015290911660c090910152949350505050565b601f82111561599757600081815260208120601f850160051c810160208610156159785750805b601f850160051c820191505b81811015613d4257828155600101615984565b505050565b815167ffffffffffffffff8111156159b6576159b6614d84565b6159ca816159c484546156f3565b84615951565b602080601f831160018114615a1d57600084156159e75750858301515b7fffffffffffffffffffffffffffffffffffffffffffffffffffffffffffffffff600386901b1c1916600185901b178555613d42565b600085815260208120601f198616915b82811015615a4c57888601518255948401946001909101908401615a2d565b5085821015615a8857878501517fffffffffffffffffffffffffffffffffffffffffffffffffffffffffffffffff600388901b60f8161c191681555b5050505050600190811b01905550565b60006001600160a01b03808816835280871660208401525060a06040830152615ac460a0830186615162565b8281036060840152615ad68186615162565b905082810360808401526139bd8185614bf3565b600060208284031215615afc57600080fd5b8151614bc881614b7d565b600060033d1115615b205760046000803e5060005160e01c5b90565b600060443d1015615b315790565b6040517ffffffffffffffffffffffffffffffffffffffffffffffffffffffffffffffffc803d016004833e81513d67ffffffffffffffff8160248401118184111715615b7f57505050505090565b8285019150815181811115615b975750505050505090565b843d8701016020828501011115615bb15750505050505090565b615bc060208286010187614db3565b509095945050505050565b8082018082111561086b5761086b615792565b8181038181111561086b5761086b615792565b608081526000615c046080830187614bf3565b6001600160a01b039590951660208301525063ffffffff92909216604083015267ffffffffffffffff16606090910152919050565b7fff000000000000000000000000000000000000000000000000000000000000008460f81b16815260008351615c76816001850160208801614bcf565b835190830190615c8d816001840160208801614bcf565b0160010195945050505050565b60006001600160a01b03808816835280871660208401525084604083015283606083015260a06080830152615cd260a0830184614bf3565b97965050505050505056fea2646970667358221220167d6e3013d3e93d5c26123e64f2342ed40938b22863741ebf08dbb58689c0fa64736f6c63430008110033",
  "devdoc": {
    "kind": "dev",
    "methods": {
      "allFusesBurned(bytes32,uint32)": {
        "params": {
          "fuseMask": "The fuses you want to check",
          "node": "Namehash of the name"
        },
        "returns": {
          "_0": "Boolean of whether or not all the selected fuses are burned"
        }
      },
      "balanceOf(address,uint256)": {
        "details": "See {IERC1155-balanceOf}. Requirements: - `account` cannot be the zero address."
      },
      "balanceOfBatch(address[],uint256[])": {
        "details": "See {IERC1155-balanceOfBatch}. Requirements: - `accounts` and `ids` must have the same length."
      },
      "getData(uint256)": {
        "params": {
          "id": "Label as a string of the .scroll domain to wrap"
        },
        "returns": {
          "_0": "address The owner of the name",
          "_1": "uint32 Fuses of the name",
          "_2": "uint64 Expiry of when the fuses expire for the name"
        }
      },
      "isApprovedForAll(address,address)": {
        "details": "See {IERC1155-isApprovedForAll}."
      },
      "isTokenOwnerOrApproved(bytes32,address)": {
        "params": {
          "addr": "which address to check permissions for",
          "node": "namehash of the name to check"
        },
        "returns": {
          "_0": "whether or not is owner or approved"
        }
      },
      "isWrapped(bytes32)": {
        "details": "Both of these checks need to be true to be considered wrapped if checked without this contract",
        "params": {
          "node": "Namehash of the name"
        },
        "returns": {
          "_0": "Boolean of whether or not the name is wrapped"
        }
      },
      "owner()": {
        "details": "Returns the address of the current owner."
      },
      "ownerOf(uint256)": {
        "params": {
          "id": "Label as a string of the .scroll domain to wrap"
        },
        "returns": {
          "owner": "The owner of the name"
        }
      },
      "recoverFunds(address,address,uint256)": {
        "details": "The contract is Ownable and only the owner can call the recover function.",
        "params": {
          "_amount": "The amount of tokens to recover.",
          "_to": "The address to send the tokens to.",
          "_token": "The address of the ERC20 token to recover"
        }
      },
      "registerAndWrapETH2LD(string,address,uint256,address,uint32,uint64)": {
        "details": "Registers a new .scroll second-level domain and wraps it.      Only callable by authorised controllers.",
        "params": {
          "duration": "The duration, in seconds, to register the name for.",
          "expiry": "When the fuses will expire",
          "fuses": "Initial fuses to set",
          "label": "The label to register (Eg, 'foo' for 'foo.scroll').",
          "resolver": "The resolver address to set on the SNS registry (optional).",
          "wrappedOwner": "The owner of the wrapped name."
        },
        "returns": {
          "registrarExpiry": "The expiry date of the new name on the .scroll registrar, in seconds since the Unix epoch."
        }
      },
      "renew(uint256,uint256,uint32,uint64)": {
        "details": "Only callable by authorised controllers.",
        "params": {
          "duration": "The number of seconds to renew the name for.",
          "tokenId": "The hash of the label to register (eg, `keccak256('foo')`, for 'foo.scroll')."
        },
        "returns": {
          "expires": "The expiry date of the name on the .scroll registrar, in seconds since the Unix epoch."
        }
      },
      "renounceOwnership()": {
        "details": "Leaves the contract without owner. It will not be possible to call `onlyOwner` functions anymore. Can only be called by the current owner. NOTE: Renouncing ownership will leave the contract without an owner, thereby removing any functionality that is only available to the owner."
      },
      "safeBatchTransferFrom(address,address,uint256[],uint256[],bytes)": {
        "details": "See {IERC1155-safeBatchTransferFrom}."
      },
      "safeTransferFrom(address,address,uint256,uint256,bytes)": {
        "details": "See {IERC1155-safeTransferFrom}."
      },
      "setApprovalForAll(address,bool)": {
        "details": "See {IERC1155-setApprovalForAll}."
      },
      "setChildFuses(bytes32,bytes32,uint32,uint64)": {
        "params": {
          "expiry": "When the fuses will expire",
          "fuses": "Fuses to burn",
          "labelhash": "Labelhash of the name, e.g. vitalik.xyz would be keccak256('vitalik')",
          "parentNode": "Parent namehash of the name e.g. vitalik.xyz would be namehash('xyz')"
        }
      },
      "setFuses(bytes32,uint32)": {
        "params": {
          "fuses": "Fuses to burn (cannot burn PARENT_CANNOT_CONTROL)",
          "node": "Namehash of the name"
        },
        "returns": {
          "_0": "New fuses"
        }
      },
      "setMetadataService(address)": {
        "params": {
          "_metadataService": "The new metadata service"
        }
      },
      "setRecord(bytes32,address,address,uint64)": {
        "params": {
          "node": "Namehash of the name to set a record for",
          "owner": "New owner in the registry",
          "resolver": "Resolver contract",
          "ttl": "Time to live in the registry"
        }
      },
      "setResolver(bytes32,address)": {
        "params": {
          "node": "namehash of the name",
          "resolver": "the resolver contract"
        }
      },
      "setSubnodeOwner(bytes32,string,address,uint32,uint64)": {
        "params": {
          "expiry": "When the fuses will expire",
          "fuses": "Initial fuses for the wrapped subdomain",
          "label": "Label of the subdomain as a string",
          "owner": "New owner in the wrapper",
          "parentNode": "Parent namehash of the subdomain"
        },
        "returns": {
          "node": "Namehash of the subdomain"
        }
      },
      "setSubnodeRecord(bytes32,string,address,address,uint64,uint32,uint64)": {
        "params": {
          "expiry": "expiry date for the domain",
          "fuses": "initial fuses for the wrapped subdomain",
          "label": "label of the subdomain as a string",
          "owner": "new owner in the wrapper",
          "parentNode": "parent namehash of the subdomain",
          "resolver": "resolver contract in the registry",
          "ttl": "ttl in the regsitry"
        },
        "returns": {
          "node": "Namehash of the subdomain"
        }
      },
      "setTTL(bytes32,uint64)": {
        "params": {
          "node": "Namehash of the name",
          "ttl": "TTL in the registry"
        }
      },
      "setUpgradeContract(address)": {
        "details": "The default value of upgradeContract is the 0 address. Use the 0 address at any time to make the contract not upgradable.",
        "params": {
          "_upgradeAddress": "address of an upgraded contract"
        }
      },
      "transferOwnership(address)": {
        "details": "Transfers ownership of the contract to a new account (`newOwner`). Can only be called by the current owner."
      },
      "unwrap(bytes32,bytes32,address)": {
        "details": "Can be called by the owner in the wrapper or an authorised caller in the wrapper",
        "params": {
          "controller": "Sets the owner in the registry to this address",
          "labelhash": "Labelhash of the name, e.g. vitalik.xyz would be keccak256('vitalik')",
          "parentNode": "Parent namehash of the name e.g. vitalik.xyz would be namehash('xyz')"
        }
      },
      "unwrapETH2LD(bytes32,address,address)": {
        "details": "Can be called by the owner in the wrapper or an authorised caller in the wrapper",
        "params": {
          "controller": "Sets the owner in the registry to this address",
          "labelhash": "Labelhash of the .scroll domain",
          "registrant": "Sets the owner in the .scroll registrar to this address"
        }
      },
      "upgrade(bytes32,string,address,address)": {
        "details": "Can be called by the owner or an authorised caller Requires upgraded Namewrapper to permit old Namewrapper to call `setSubnodeRecord` for all names",
        "params": {
          "label": "Label as a string of the name to upgrade",
          "parentNode": "Namehash of the parent name",
          "resolver": "Resolver contract for this name",
          "wrappedOwner": "Owner of the name in this contract"
        }
      },
      "upgradeETH2LD(string,address,address)": {
        "details": "Can be called by the owner of the name in this contract",
        "params": {
          "label": "Label as a string of the .scroll name to upgrade",
          "wrappedOwner": "The owner of the wrapped name"
        }
      },
      "uri(uint256)": {
        "params": {
          "tokenId": "The id of the token"
        },
        "returns": {
          "_0": "string uri of the metadata service"
        }
      },
      "wrap(bytes,address,address)": {
        "details": "Can be called by the owner in the registry or an authorised caller in the registry",
        "params": {
          "name": "The name to wrap, in SNS format",
          "resolver": "Resolver contract",
          "wrappedOwner": "Owner of the name in this contract"
        }
      },
      "wrapETH2LD(string,address,uint32,uint64,address)": {
        "details": "Can be called by the owner of the name on the .scroll registrar or an authorised caller on the registrar",
        "params": {
          "expiry": "When the fuses will expire",
          "fuses": "Initial fuses to set",
          "label": "Label as a string of the .scroll domain to wrap",
          "resolver": "Resolver contract address",
          "wrappedOwner": "Owner of the name in this contract"
        },
        "returns": {
          "_0": "Normalised expiry of when the fuses expire"
        }
      }
    },
    "version": 1
  },
  "userdoc": {
    "kind": "user",
    "methods": {
      "allFusesBurned(bytes32,uint32)": {
        "notice": "Checks all Fuses in the mask are burned for the node"
      },
      "getData(uint256)": {
        "notice": "Gets the data for a name"
      },
      "isTokenOwnerOrApproved(bytes32,address)": {
        "notice": "Checks if owner or approved by owner"
      },
      "isWrapped(bytes32)": {
        "notice": "Checks if a name is wrapped or not"
      },
      "ownerOf(uint256)": {
        "notice": "Gets the owner of a name"
      },
      "recoverFunds(address,address,uint256)": {
        "notice": "Recover ERC20 tokens sent to the contract by mistake."
      },
      "renew(uint256,uint256,uint32,uint64)": {
        "notice": "Renews a .scroll second-level domain."
      },
      "setChildFuses(bytes32,bytes32,uint32,uint64)": {
        "notice": "Sets fuses of a name that you own the parent of. Can also be called by the owner of a .scroll name"
      },
      "setFuses(bytes32,uint32)": {
        "notice": "Sets fuses of a name"
      },
      "setMetadataService(address)": {
        "notice": "Set the metadata service. Only the owner can do this"
      },
      "setRecord(bytes32,address,address,uint64)": {
        "notice": "Sets records for the name in the SNS Registry"
      },
      "setResolver(bytes32,address)": {
        "notice": "Sets resolver contract in the registry"
      },
      "setSubnodeOwner(bytes32,string,address,uint32,uint64)": {
        "notice": "Sets the subdomain owner in the registry and then wraps the subdomain"
      },
      "setSubnodeRecord(bytes32,string,address,address,uint64,uint32,uint64)": {
        "notice": "Sets the subdomain owner in the registry with records and then wraps the subdomain"
      },
      "setTTL(bytes32,uint64)": {
        "notice": "Sets TTL in the registry"
      },
      "setUpgradeContract(address)": {
        "notice": "Set the address of the upgradeContract of the contract. only admin can do this"
      },
      "unwrap(bytes32,bytes32,address)": {
        "notice": "Unwraps a non .scroll domain, of any kind. Could be a DNSSEC name vitalik.xyz or a subdomain"
      },
      "unwrapETH2LD(bytes32,address,address)": {
        "notice": "Unwraps a .scroll domain. e.g. vitalik.scroll"
      },
      "upgrade(bytes32,string,address,address)": {
        "notice": "Upgrades a non .scroll domain of any kind. Could be a DNSSEC name vitalik.xyz or a subdomain"
      },
      "upgradeETH2LD(string,address,address)": {
        "notice": "Upgrades a .scroll wrapped domain by calling the wrapETH2LD function of the upgradeContract     and burning the token of this contract"
      },
      "uri(uint256)": {
        "notice": "Get the metadata uri"
      },
      "wrap(bytes,address,address)": {
        "notice": "Wraps a non .scroll domain, of any kind. Could be a DNSSEC name vitalik.xyz or a subdomain"
      },
      "wrapETH2LD(string,address,uint32,uint64,address)": {
        "notice": "Wraps a .scroll domain, creating a new token and sending the original ERC721 token to this contract"
      }
    },
    "version": 1
  },
  "storageLayout": {
    "storage": [
      {
        "astId": 545,
        "contract": "contracts/wrapper/NameWrapper.sol:NameWrapper",
        "label": "_owner",
        "offset": 0,
        "slot": "0",
        "type": "t_address"
      },
      {
        "astId": 17479,
        "contract": "contracts/wrapper/NameWrapper.sol:NameWrapper",
        "label": "_tokens",
        "offset": 0,
        "slot": "1",
        "type": "t_mapping(t_uint256,t_uint256)"
      },
      {
        "astId": 17485,
        "contract": "contracts/wrapper/NameWrapper.sol:NameWrapper",
        "label": "_operatorApprovals",
        "offset": 0,
        "slot": "2",
        "type": "t_mapping(t_address,t_mapping(t_address,t_bool))"
      },
      {
        "astId": 17415,
        "contract": "contracts/wrapper/NameWrapper.sol:NameWrapper",
        "label": "controllers",
        "offset": 0,
        "slot": "3",
        "type": "t_mapping(t_address,t_bool)"
      },
      {
        "astId": 18747,
        "contract": "contracts/wrapper/NameWrapper.sol:NameWrapper",
        "label": "metadataService",
        "offset": 0,
        "slot": "4",
        "type": "t_contract(IMetadataService)18341"
      },
      {
        "astId": 18752,
        "contract": "contracts/wrapper/NameWrapper.sol:NameWrapper",
        "label": "names",
        "offset": 0,
        "slot": "5",
        "type": "t_mapping(t_bytes32,t_bytes_storage)"
      },
      {
        "astId": 18764,
        "contract": "contracts/wrapper/NameWrapper.sol:NameWrapper",
        "label": "upgradeContract",
        "offset": 0,
        "slot": "6",
        "type": "t_contract(INameWrapperUpgrade)18652"
      }
    ],
    "types": {
      "t_address": {
        "encoding": "inplace",
        "label": "address",
        "numberOfBytes": "20"
      },
      "t_bool": {
        "encoding": "inplace",
        "label": "bool",
        "numberOfBytes": "1"
      },
      "t_bytes32": {
        "encoding": "inplace",
        "label": "bytes32",
        "numberOfBytes": "32"
      },
      "t_bytes_storage": {
        "encoding": "bytes",
        "label": "bytes",
        "numberOfBytes": "32"
      },
      "t_contract(IMetadataService)18341": {
        "encoding": "inplace",
        "label": "contract IMetadataService",
        "numberOfBytes": "20"
      },
      "t_contract(INameWrapperUpgrade)18652": {
        "encoding": "inplace",
        "label": "contract INameWrapperUpgrade",
        "numberOfBytes": "20"
      },
      "t_mapping(t_address,t_bool)": {
        "encoding": "mapping",
        "key": "t_address",
        "label": "mapping(address => bool)",
        "numberOfBytes": "32",
        "value": "t_bool"
      },
      "t_mapping(t_address,t_mapping(t_address,t_bool))": {
        "encoding": "mapping",
        "key": "t_address",
        "label": "mapping(address => mapping(address => bool))",
        "numberOfBytes": "32",
        "value": "t_mapping(t_address,t_bool)"
      },
      "t_mapping(t_bytes32,t_bytes_storage)": {
        "encoding": "mapping",
        "key": "t_bytes32",
        "label": "mapping(bytes32 => bytes)",
        "numberOfBytes": "32",
        "value": "t_bytes_storage"
      },
      "t_mapping(t_uint256,t_uint256)": {
        "encoding": "mapping",
        "key": "t_uint256",
        "label": "mapping(uint256 => uint256)",
        "numberOfBytes": "32",
        "value": "t_uint256"
      },
      "t_uint256": {
        "encoding": "inplace",
        "label": "uint256",
        "numberOfBytes": "32"
      }
    }
  }
}