{
  "address": "0x9F2bd1310e54C7c8aBbC71B6f9f936015DE6b39E",
  "abi": [
    {
      "inputs": [
        {
          "internalType": "string",
          "name": "_metaDataUri",
          "type": "string"
        }
      ],
      "stateMutability": "nonpayable",
      "type": "constructor"
    },
    {
      "inputs": [],
      "name": "owner",
      "outputs": [
        {
          "internalType": "address",
          "name": "",
          "type": "address"
        }
      ],
      "stateMutability": "view",
      "type": "function"
    },
    {
      "inputs": [
        {
          "internalType": "string",
          "name": "_metaDataUri",
          "type": "string"
        }
      ],
      "name": "setUri",
      "outputs": [],
      "stateMutability": "nonpayable",
      "type": "function"
    },
    {
      "inputs": [
        {
          "internalType": "uint256",
          "name": "",
          "type": "uint256"
        }
      ],
      "name": "uri",
      "outputs": [
        {
          "internalType": "string",
          "name": "",
          "type": "string"
        }
      ],
      "stateMutability": "view",
      "type": "function"
    }
  ],
  "transactionHash": "0xa992b1eea5f1c59ab42d6f7bbfaa4210f903d9e6497526ed30f704f04c1c448b",
  "args": [
    "metadata.scrollns.org/name/0x{id}"
  ],
  "numDeployments": 1,
  "solcInputHash": "06dc422e41f645e7c99b3722694f53c4",
  "bytecode": "0x608060405234801561001057600080fd5b5060405161081738038061081783398101604081905261002f9161006a565b600061003b82826101bc565b5050600180546001600160a01b0319163317905561027b565b634e487b7160e01b600052604160045260246000fd5b6000602080838503121561007d57600080fd5b82516001600160401b038082111561009457600080fd5b818501915085601f8301126100a857600080fd5b8151818111156100ba576100ba610054565b604051601f8201601f19908116603f011681019083821181831017156100e2576100e2610054565b8160405282815288868487010111156100fa57600080fd5b600093505b8284101561011c57848401860151818501870152928501926100ff565b600086848301015280965050505050505092915050565b600181811c9082168061014757607f821691505b60208210810361016757634e487b7160e01b600052602260045260246000fd5b50919050565b601f8211156101b757600081815260208120601f850160051c810160208610156101945750805b601f850160051c820191505b818110156101b3578281556001016101a0565b5050505b505050565b81516001600160401b038111156101d5576101d5610054565b6101e9816101e38454610133565b8461016d565b602080601f83116001811461021e57600084156102065750858301515b600019600386901b1c1916600185901b1785556101b3565b600085815260208120601f198616915b8281101561024d5788860151825594840194600190910190840161022e565b508582101561026b5787850151600019600388901b60f8161c191681555b5050505050600190811b01905550565b61058d8061028a6000396000f3fe608060405234801561001057600080fd5b50600436106100415760003560e01c80630e89341c146100465780638da5cb5b1461006f5780639b642de1146100b4575b600080fd5b610059610054366004610218565b6100c9565b6040516100669190610231565b60405180910390f35b60015461008f9073ffffffffffffffffffffffffffffffffffffffff1681565b60405173ffffffffffffffffffffffffffffffffffffffff9091168152602001610066565b6100c76100c23660046102cc565b61015d565b005b6060600080546100d89061039b565b80601f01602080910402602001604051908101604052809291908181526020018280546101049061039b565b80156101515780601f1061012657610100808354040283529160200191610151565b820191906000526020600020905b81548152906001019060200180831161013457829003601f168201915b50505050509050919050565b60015473ffffffffffffffffffffffffffffffffffffffff163314610208576040517f08c379a000000000000000000000000000000000000000000000000000000000815260206004820152602860248201527f4f6e6c792074686520636f6e7472616374206f776e65722063616e207365742060448201527f746865205552492e000000000000000000000000000000000000000000000000606482015260840160405180910390fd5b6000610214828261043d565b5050565b60006020828403121561022a57600080fd5b5035919050565b600060208083528351808285015260005b8181101561025e57858101830151858201604001528201610242565b5060006040828601015260407fffffffffffffffffffffffffffffffffffffffffffffffffffffffffffffffe0601f8301168501019250505092915050565b7f4e487b7100000000000000000000000000000000000000000000000000000000600052604160045260246000fd5b6000602082840312156102de57600080fd5b813567ffffffffffffffff808211156102f657600080fd5b818401915084601f83011261030a57600080fd5b81358181111561031c5761031c61029d565b604051601f82017fffffffffffffffffffffffffffffffffffffffffffffffffffffffffffffffe0908116603f011681019083821181831017156103625761036261029d565b8160405282815287602084870101111561037b57600080fd5b826020860160208301376000928101602001929092525095945050505050565b600181811c908216806103af57607f821691505b6020821081036103e8577f4e487b7100000000000000000000000000000000000000000000000000000000600052602260045260246000fd5b50919050565b601f82111561043857600081815260208120601f850160051c810160208610156104155750805b601f850160051c820191505b8181101561043457828155600101610421565b5050505b505050565b815167ffffffffffffffff8111156104575761045761029d565b61046b81610465845461039b565b846103ee565b602080601f8311600181146104be57600084156104885750858301515b7fffffffffffffffffffffffffffffffffffffffffffffffffffffffffffffffff600386901b1c1916600185901b178555610434565b6000858152602081207fffffffffffffffffffffffffffffffffffffffffffffffffffffffffffffffe08616915b8281101561050b578886015182559484019460019091019084016104ec565b508582101561054757878501517fffffffffffffffffffffffffffffffffffffffffffffffffffffffffffffffff600388901b60f8161c191681555b5050505050600190811b0190555056fea26469706673582212207ad8969e9dffa4cf24c9e3378d8119b5cadbf5d30d7beb1fee290102d41b1a4764736f6c63430008110033",
  "devdoc": {
    "kind": "dev",
    "methods": {},
    "version": 1
  },
  "userdoc": {
    "kind": "user",
    "methods": {},
    "version": 1
  },
  "storageLayout": {
    "storage": [
      {
        "astId": 21103,
        "contract": "contracts/wrapper/StaticMetadataService.sol:StaticMetadataService",
        "label": "_uri",
        "offset": 0,
        "slot": "0",
        "type": "t_string_storage"
      },
      {
        "astId": 21105,
        "contract": "contracts/wrapper/StaticMetadataService.sol:StaticMetadataService",
        "label": "owner",
        "offset": 0,
        "slot": "1",
        "type": "t_address"
      }
    ],
    "types": {
      "t_address": {
        "encoding": "inplace",
        "label": "address",
        "numberOfBytes": "20"
      },
      "t_string_storage": {
        "encoding": "bytes",
        "label": "string",
        "numberOfBytes": "32"
      }
    }
  }
}