{
  "address": "0x159bd8471d0c334a7d76d9bB41184d1038ff7beD",
  "abi": [
    {
      "inputs": [
        {
          "internalType": "address",
          "name": "_registry",
          "type": "address"
        }
      ],
      "stateMutability": "nonpayable",
      "type": "constructor"
    },
    {
      "inputs": [
        {
          "internalType": "address",
          "name": "sender",
          "type": "address"
        },
        {
          "internalType": "string[]",
          "name": "urls",
          "type": "string[]"
        },
        {
          "internalType": "bytes",
          "name": "callData",
          "type": "bytes"
        },
        {
          "internalType": "bytes4",
          "name": "callbackFunction",
          "type": "bytes4"
        },
        {
          "internalType": "bytes",
          "name": "extraData",
          "type": "bytes"
        }
      ],
      "name": "OffchainLookup",
      "type": "error"
    },
    {
      "inputs": [
        {
          "internalType": "bytes",
          "name": "name",
          "type": "bytes"
        }
      ],
      "name": "findResolver",
      "outputs": [
        {
          "internalType": "contract Resolver",
          "name": "",
          "type": "address"
        },
        {
          "internalType": "bytes32",
          "name": "",
          "type": "bytes32"
        }
      ],
      "stateMutability": "view",
      "type": "function"
    },
    {
      "inputs": [],
      "name": "registry",
      "outputs": [
        {
          "internalType": "contract SNS",
          "name": "",
          "type": "address"
        }
      ],
      "stateMutability": "view",
      "type": "function"
    },
    {
      "inputs": [
        {
          "internalType": "bytes",
          "name": "name",
          "type": "bytes"
        },
        {
          "internalType": "bytes",
          "name": "data",
          "type": "bytes"
        }
      ],
      "name": "resolve",
      "outputs": [
        {
          "internalType": "bytes",
          "name": "",
          "type": "bytes"
        },
        {
          "internalType": "address",
          "name": "",
          "type": "address"
        }
      ],
      "stateMutability": "view",
      "type": "function"
    },
    {
      "inputs": [
        {
          "internalType": "bytes",
          "name": "response",
          "type": "bytes"
        },
        {
          "internalType": "bytes",
          "name": "extraData",
          "type": "bytes"
        }
      ],
      "name": "resolveCallback",
      "outputs": [
        {
          "internalType": "bytes",
          "name": "",
          "type": "bytes"
        }
      ],
      "stateMutability": "view",
      "type": "function"
    },
    {
      "inputs": [
        {
          "internalType": "bytes",
          "name": "reverseName",
          "type": "bytes"
        }
      ],
      "name": "reverse",
      "outputs": [
        {
          "internalType": "string",
          "name": "",
          "type": "string"
        },
        {
          "internalType": "address",
          "name": "",
          "type": "address"
        },
        {
          "internalType": "address",
          "name": "",
          "type": "address"
        },
        {
          "internalType": "address",
          "name": "",
          "type": "address"
        }
      ],
      "stateMutability": "view",
      "type": "function"
    },
    {
      "inputs": [
        {
          "internalType": "bytes4",
          "name": "interfaceId",
          "type": "bytes4"
        }
      ],
      "name": "supportsInterface",
      "outputs": [
        {
          "internalType": "bool",
          "name": "",
          "type": "bool"
        }
      ],
      "stateMutability": "view",
      "type": "function"
    }
  ],
  "transactionHash": "0x17086dcf0e32f077e1efe6bf2abfe663391efda685c34c5697c6b9e3c3e3502e",
  "args": [
    "0xC449ff43A7e3FAe2d2Fb7c81f8A2C491E9B33b7b"
  ],
  "numDeployments": 1,
  "solcInputHash": "06dc422e41f645e7c99b3722694f53c4",
  "bytecode": "0x60a060405234801561001057600080fd5b50604051611bfb380380611bfb83398101604081905261002f91610040565b6001600160a01b0316608052610070565b60006020828403121561005257600080fd5b81516001600160a01b038116811461006957600080fd5b9392505050565b608051611b6a6100916000396000818160a40152610a3c0152611b6a6000f3fe608060405234801561001057600080fd5b50600436106100725760003560e01c8063a1cbcbaf11610050578063a1cbcbaf1461010c578063b4a858011461014b578063ec11c8231461016b57600080fd5b806301ffc9a7146100775780637b1039991461009f5780639061b923146100eb575b600080fd5b61008a610085366004611233565b61018e565b60405190151581526020015b60405180910390f35b6100c67f000000000000000000000000000000000000000000000000000000000000000081565b60405173ffffffffffffffffffffffffffffffffffffffff9091168152602001610096565b6100fe6100f9366004611370565b610227565b604051610096929190611429565b61011f61011a366004611461565b6103fc565b6040805173ffffffffffffffffffffffffffffffffffffffff9093168352602083019190915201610096565b61015e6101593660046114a3565b61041d565b604051610096919061150f565b61017e610179366004611461565b6104eb565b6040516100969493929190611522565b60007fffffffff0000000000000000000000000000000000000000000000000000000082167f9061b92300000000000000000000000000000000000000000000000000000000148061022157507f01ffc9a7000000000000000000000000000000000000000000000000000000007fffffffff000000000000000000000000000000000000000000000000000000008316145b92915050565b606060008061023686866103fc565b50905073ffffffffffffffffffffffffffffffffffffffff811661026e575050604080516020810190915260008082529091506103f4565b6040517f01ffc9a70000000000000000000000000000000000000000000000000000000081527f9061b92300000000000000000000000000000000000000000000000000000000600482015273ffffffffffffffffffffffffffffffffffffffff8216906301ffc9a790602401602060405180830381865afa925050508015610314575060408051601f3d908101601f191682019092526103119181019061156b565b60015b156103c45780156103c2576103b6828888886040516024016103389392919061158d565b60408051601f198184030181529190526020810180517bffffffffffffffffffffffffffffffffffffffffffffffffffffffff167f9061b923000000000000000000000000000000000000000000000000000000001790527fb4a85801000000000000000000000000000000000000000000000000000000006107a3565b829350935050506103f4565b505b6103ef81857fb4a85801000000000000000000000000000000000000000000000000000000006107a3565b925090505b935093915050565b60008060008061040e86866000610929565b909450925050505b9250929050565b60606000808061042f858701876115ed565b9250925092506104ca8289898460405160240161044e9392919061158d565b60408051601f198184030181529190526020810180517bffffffffffffffffffffffffffffffffffffffffffffffffffffffff167fffffffff000000000000000000000000000000000000000000000000000000009093169290921790915273ffffffffffffffffffffffffffffffffffffffff851690610ae6565b8060200190518101906104dd919061168a565b93505050505b949350505050565b606060008060008060003073ffffffffffffffffffffffffffffffffffffffff16639061b923898961055760008d8d8080601f0160208091040260200160405190810160405280939291908181526020018383808284376000920191909152509293925050610b0b9050565b60405160240161056991815260200190565b60408051601f198184030181529181526020820180517bffffffffffffffffffffffffffffffffffffffffffffffffffffffff167f691f343100000000000000000000000000000000000000000000000000000000179052517fffffffff0000000000000000000000000000000000000000000000000000000060e086901b1681526105fa9392919060040161158d565b600060405180830381865afa158015610617573d6000803e3d6000fd5b505050506040513d6000823e601f3d908101601f1916820160405261063f91908101906116bf565b91509150600082806020019051810190610659919061168a565b905060008061066783610be4565b915091506000803073ffffffffffffffffffffffffffffffffffffffff16639061b923858560405160240161069e91815260200190565b60408051601f198184030181529181526020820180517bffffffffffffffffffffffffffffffffffffffffffffffffffffffff167f3b3b57de00000000000000000000000000000000000000000000000000000000179052517fffffffff0000000000000000000000000000000000000000000000000000000060e085901b16815261072e929190600401611711565b600060405180830381865afa15801561074b573d6000803e3d6000fd5b505050506040513d6000823e601f3d908101601f1916820160405261077391908101906116bf565b9150915060008280602001905181019061078d919061173f565b959e959d50959b50995092975050505050505050565b606060006107b18585610e91565b90503d81156107ce576107c5600082610f4a565b92505050610922565b600481106109175760006107e460006004610f4a565b90507f556f1830000000000000000000000000000000000000000000000000000000006108108261175c565b7fffffffff00000000000000000000000000000000000000000000000000000000160361091557600061084d600461084881866117db565b610f4a565b905060008060008060008580602001905181019061086b91906117fe565b945094509450945094508c73ffffffffffffffffffffffffffffffffffffffff168573ffffffffffffffffffffffffffffffffffffffff160361090e573084848d8886866040516020016108c193929190611931565b60408051601f19818403018152908290527f556f18300000000000000000000000000000000000000000000000000000000082526109059594939291600401611988565b60405180910390fd5b5050505050505b505b61091f610f9f565b50505b9392505050565b600080600085858581811061094057610940611a77565b919091013560f81c91505060008190036109615750600091508190506103f4565b600061096d8286611aa6565b610978906001611aa6565b905060008787610989886001611aa6565b61099592859290611ab9565b6040516109a3929190611ae3565b604051809103902090506000806109bb8a8a86610929565b91509150600081846040516020016109dd929190918252602082015260400190565b60408051601f198184030181529082905280516020909101207f0178b8bf00000000000000000000000000000000000000000000000000000000825260048201819052915060009073ffffffffffffffffffffffffffffffffffffffff7f00000000000000000000000000000000000000000000000000000000000000001690630178b8bf90602401602060405180830381865afa158015610a83573d6000803e3d6000fd5b505050506040513d601f19601f82011682018060405250810190610aa7919061173f565b905073ffffffffffffffffffffffffffffffffffffffff811615610ad457975095506103f4945050505050565b50919a91995090975050505050505050565b60606109228383604051806060016040528060258152602001611b1060259139610fa9565b6000806000610b1a858561102e565b909250905081610ba65760018551610b3291906117db565b8414610b9a576040517f08c379a000000000000000000000000000000000000000000000000000000000815260206004820152601d60248201527f6e616d65686173683a204a756e6b20617420656e64206f66206e616d650000006044820152606401610905565b50600091506102219050565b610bb08582610b0b565b6040805160208101929092528101839052606001604051602081830303815290604052805190602001209250505092915050565b805160609060009081908490610bfb816002611aa6565b67ffffffffffffffff811115610c1357610c13611292565b6040519080825280601f01601f191660200182016040528015610c3d576020820181803683370190505b50945060009350808403610c9a57600060f81b85600081518110610c6357610c63611a77565b60200101907effffffffffffffffffffffffffffffffffffffffffffffffffffffffffffff1916908160001a905350505050915091565b7fffffffffffffffffffffffffffffffffffffffffffffffffffffffffffffffff81015b828181518110610cd057610cd0611a77565b01602001517fff00000000000000000000000000000000000000000000000000000000000000167f2e0000000000000000000000000000000000000000000000000000000000000003610daa578360f81b868260010181518110610d3657610d36611a77565b60200101907effffffffffffffffffffffffffffffffffffffffffffffffffffffffffffff1916908160001a90535084610d77846001840160ff88166110ff565b60408051602081019390935282015260600160405160208183030381529060405280519060200120945060009350610e12565b600184019350828181518110610dc257610dc2611a77565b602001015160f81c60f81b868260010181518110610de257610de2611a77565b60200101907effffffffffffffffffffffffffffffffffffffffffffffffffffffffffffff1916908160001a9053505b8015610e3f577fffffffffffffffffffffffffffffffffffffffffffffffffffffffffffffffff01610cbe565b5083610e5083600060ff87166110ff565b6040805160208101939093528201526060016040516020818303038152906040528051906020012093508260f81b85600081518110610c6357610c63611a77565b600073ffffffffffffffffffffffffffffffffffffffff83163b610f37576040517f08c379a000000000000000000000000000000000000000000000000000000000815260206004820152602e60248201527f4c6f774c6576656c43616c6c5574696c733a207374617469632063616c6c207460448201527f6f206e6f6e2d636f6e74726163740000000000000000000000000000000000006064820152608401610905565b600080835160208501865afa9392505050565b60608167ffffffffffffffff811115610f6557610f65611292565b6040519080825280601f01601f191660200182016040528015610f8f576020820181803683370190505b5090508183602083013e92915050565b3d6000803e3d6000fd5b60606000808573ffffffffffffffffffffffffffffffffffffffff1685604051610fd39190611af3565b600060405180830381855afa9150503d806000811461100e576040519150601f19603f3d011682016040523d82523d6000602084013e611013565b606091505b509150915061102486838387611123565b9695505050505050565b6000808351831061109b576040517f08c379a000000000000000000000000000000000000000000000000000000000815260206004820152601e60248201527f726561644c6162656c3a20496e646578206f7574206f6620626f756e647300006044820152606401610905565b60008484815181106110af576110af611a77565b016020015160f81c905080156110db576110d4856110ce866001611aa6565b836110ff565b92506110e0565b600092505b6110ea8185611aa6565b6110f5906001611aa6565b9150509250929050565b825160009061110e8385611aa6565b111561111957600080fd5b5091016020012090565b606083156111b95782516000036111b25773ffffffffffffffffffffffffffffffffffffffff85163b6111b2576040517f08c379a000000000000000000000000000000000000000000000000000000000815260206004820152601d60248201527f416464726573733a2063616c6c20746f206e6f6e2d636f6e74726163740000006044820152606401610905565b50816104e3565b6104e383838151156111ce5781518083602001fd5b806040517f08c379a0000000000000000000000000000000000000000000000000000000008152600401610905919061150f565b7fffffffff000000000000000000000000000000000000000000000000000000008116811461123057600080fd5b50565b60006020828403121561124557600080fd5b813561092281611202565b60008083601f84011261126257600080fd5b50813567ffffffffffffffff81111561127a57600080fd5b60208301915083602082850101111561041657600080fd5b7f4e487b7100000000000000000000000000000000000000000000000000000000600052604160045260246000fd5b604051601f8201601f1916810167ffffffffffffffff811182821017156112ea576112ea611292565b604052919050565b600067ffffffffffffffff82111561130c5761130c611292565b50601f01601f191660200190565b600082601f83011261132b57600080fd5b813561133e611339826112f2565b6112c1565b81815284602083860101111561135357600080fd5b816020850160208301376000918101602001919091529392505050565b60008060006040848603121561138557600080fd5b833567ffffffffffffffff8082111561139d57600080fd5b6113a987838801611250565b909550935060208601359150808211156113c257600080fd5b506113cf8682870161131a565b9150509250925092565b60005b838110156113f45781810151838201526020016113dc565b50506000910152565b600081518084526114158160208601602086016113d9565b601f01601f19169290920160200192915050565b60408152600061143c60408301856113fd565b905073ffffffffffffffffffffffffffffffffffffffff831660208301529392505050565b6000806020838503121561147457600080fd5b823567ffffffffffffffff81111561148b57600080fd5b61149785828601611250565b90969095509350505050565b600080600080604085870312156114b957600080fd5b843567ffffffffffffffff808211156114d157600080fd5b6114dd88838901611250565b909650945060208701359150808211156114f657600080fd5b5061150387828801611250565b95989497509550505050565b60208152600061092260208301846113fd565b60808152600061153560808301876113fd565b73ffffffffffffffffffffffffffffffffffffffff95861660208401529385166040830152509216606090920191909152919050565b60006020828403121561157d57600080fd5b8151801515811461092257600080fd5b60408152826040820152828460608301376000606084830101526000601f19601f8501168201606083820301602084015261102460608201856113fd565b73ffffffffffffffffffffffffffffffffffffffff8116811461123057600080fd5b60008060006060848603121561160257600080fd5b833561160d816115cb565b9250602084013561161d81611202565b9150604084013567ffffffffffffffff81111561163957600080fd5b6113cf8682870161131a565b600082601f83011261165657600080fd5b8151611664611339826112f2565b81815284602083860101111561167957600080fd5b6104e38260208301602087016113d9565b60006020828403121561169c57600080fd5b815167ffffffffffffffff8111156116b357600080fd5b6104e384828501611645565b600080604083850312156116d257600080fd5b825167ffffffffffffffff8111156116e957600080fd5b6116f585828601611645565b9250506020830151611706816115cb565b809150509250929050565b60408152600061172460408301856113fd565b828103602084015261173681856113fd565b95945050505050565b60006020828403121561175157600080fd5b8151610922816115cb565b6000815160208301517fffffffff00000000000000000000000000000000000000000000000000000000808216935060048310156117a45780818460040360031b1b83161693505b505050919050565b7f4e487b7100000000000000000000000000000000000000000000000000000000600052601160045260246000fd5b81810381811115610221576102216117ac565b80516117f981611202565b919050565b600080600080600060a0868803121561181657600080fd5b8551611821816115cb565b8095505060208087015167ffffffffffffffff8082111561184157600080fd5b818901915089601f83011261185557600080fd5b81518181111561186757611867611292565b8060051b6118768582016112c1565b918252838101850191858101908d84111561189057600080fd5b86860192505b838310156118cc578251858111156118ae5760008081fd5b6118bc8f89838a0101611645565b8352509186019190860190611896565b60408d0151909a509550505050808311156118e657600080fd5b6118f28a848b01611645565b955061190060608a016117ee565b9450608089015192508083111561191657600080fd5b505061192488828901611645565b9150509295509295909350565b73ffffffffffffffffffffffffffffffffffffffff841681527fffffffff000000000000000000000000000000000000000000000000000000008316602082015260606040820152600061173660608301846113fd565b600060a0820173ffffffffffffffffffffffffffffffffffffffff88168352602060a08185015281885180845260c08601915060c08160051b8701019350828a0160005b82811015611a18577fffffffffffffffffffffffffffffffffffffffffffffffffffffffffffffff40888703018452611a068683516113fd565b955092840192908401906001016119cc565b50505050508281036040840152611a2f81876113fd565b7fffffffff000000000000000000000000000000000000000000000000000000008616606085015290508281036080840152611a6b81856113fd565b98975050505050505050565b7f4e487b7100000000000000000000000000000000000000000000000000000000600052603260045260246000fd5b80820180821115610221576102216117ac565b60008085851115611ac957600080fd5b83861115611ad657600080fd5b5050820193919092039150565b8183823760009101908152919050565b60008251611b058184602087016113d9565b919091019291505056fe416464726573733a206c6f772d6c6576656c207374617469632063616c6c206661696c6564a26469706673582212209822f8bc462061b5c09834531517693cd67afef025c0464aeb63b541a99d32db64736f6c63430008110033",
  "devdoc": {
    "kind": "dev",
    "methods": {
      "findResolver(bytes)": {
        "details": "Finds a resolver by recursively querying the registry, starting at the longest name and progressively      removing labels until it finds a result.",
        "params": {
          "name": "The name to resolve, in SNS-encoded and normalised form."
        },
        "returns": {
          "_0": "The Resolver responsible for this name, and the namehash of the full name."
        }
      },
      "resolve(bytes,bytes)": {
        "details": "Performs SNS name resolution for the supplied name and resolution data.",
        "params": {
          "data": "The resolution data, as specified in SNSIP-10.",
          "name": "The name to resolve, in normalised and SNS-encoded form."
        },
        "returns": {
          "_0": "The result of resolving the name."
        }
      },
      "resolveCallback(bytes,bytes)": {
        "details": "Callback function for `resolve`.",
        "params": {
          "extraData": "Extra data encoded by `callWithOffchainLookupPropagation` to allow completing the request.",
          "response": "Response data returned by the target address that invoked the inner `OffchainData` revert."
        }
      },
      "reverse(bytes)": {
        "details": "Performs SNS name reverse resolution for the supplied reverse name.",
        "params": {
          "reverseName": "The reverse name to resolve, in normalised and SNS-encoded form. e.g. b6E040C9ECAaE172a89bD561c5F73e1C48d28cd9.addr.reverse"
        },
        "returns": {
          "_0": "The resolved name, the resolved address, the reverse resolver address, and the resolver address."
        }
      },
      "supportsInterface(bytes4)": {
        "details": "See {IERC165-supportsInterface}."
      }
    },
    "version": 1
  },
  "userdoc": {
    "kind": "user",
    "methods": {},
    "notice": "The Universal Resolver is a contract that handles the work of resolving a name entirely onchain, making it possible to make a single smart contract call to resolve an SNS name.",
    "version": 1
  },
  "storageLayout": {
    "storage": [],
    "types": null
  }
}